{
  "contractName": "Burnable",
  "abi": [
    {
      "constant": true,
      "inputs": [],
      "name": "burner",
      "outputs": [
        {
          "name": "",
          "type": "address"
        }
      ],
      "payable": false,
      "stateMutability": "view",
      "type": "function"
    },
    {
      "constant": false,
      "inputs": [
        {
          "name": "_newController",
          "type": "address"
        }
      ],
      "name": "changeController",
      "outputs": [],
      "payable": false,
      "stateMutability": "nonpayable",
      "type": "function"
    },
    {
      "constant": false,
      "inputs": [
        {
          "name": "_newBurner",
          "type": "address"
        }
      ],
      "name": "changeBurner",
      "outputs": [],
      "payable": false,
      "stateMutability": "nonpayable",
      "type": "function"
    },
    {
      "constant": true,
      "inputs": [],
      "name": "controller",
      "outputs": [
        {
          "name": "",
          "type": "address"
        }
      ],
      "payable": false,
      "stateMutability": "view",
      "type": "function"
    },
    {
      "inputs": [],
      "payable": false,
      "stateMutability": "nonpayable",
      "type": "constructor"
    }
  ],
  "bytecode": "0x6060604052341561000f57600080fd5b336000806101000a81548173ffffffffffffffffffffffffffffffffffffffff021916908373ffffffffffffffffffffffffffffffffffffffff16021790555033600160006101000a81548173ffffffffffffffffffffffffffffffffffffffff021916908373ffffffffffffffffffffffffffffffffffffffff1602179055506103358061009f6000396000f300606060405260043610610062576000357c0100000000000000000000000000000000000000000000000000000000900463ffffffff16806327810b6e146100675780633cebb823146100bc57806380b022e8146100f5578063f77c47911461012e575b600080fd5b341561007257600080fd5b61007a610183565b604051808273ffffffffffffffffffffffffffffffffffffffff1673ffffffffffffffffffffffffffffffffffffffff16815260200191505060405180910390f35b34156100c757600080fd5b6100f3600480803573ffffffffffffffffffffffffffffffffffffffff169060200190919050506101a9565b005b341561010057600080fd5b61012c600480803573ffffffffffffffffffffffffffffffffffffffff16906020019091905050610247565b005b341561013957600080fd5b6101416102e4565b604051808273ffffffffffffffffffffffffffffffffffffffff1673ffffffffffffffffffffffffffffffffffffffff16815260200191505060405180910390f35b600160009054906101000a900473ffffffffffffffffffffffffffffffffffffffff1681565b6000809054906101000a900473ffffffffffffffffffffffffffffffffffffffff1673ffffffffffffffffffffffffffffffffffffffff163373ffffffffffffffffffffffffffffffffffffffff1614151561020457600080fd5b806000806101000a81548173ffffffffffffffffffffffffffffffffffffffff021916908373ffffffffffffffffffffffffffffffffffffffff16021790555050565b600160009054906101000a900473ffffffffffffffffffffffffffffffffffffffff1673ffffffffffffffffffffffffffffffffffffffff163373ffffffffffffffffffffffffffffffffffffffff161415156102a057fe5b80600160006101000a81548173ffffffffffffffffffffffffffffffffffffffff021916908373ffffffffffffffffffffffffffffffffffffffff16021790555050565b6000809054906101000a900473ffffffffffffffffffffffffffffffffffffffff16815600a165627a7a723058201172a4afce4c7faad4280598d5280714a7a78d52f73899f4f92dfb4bd57bc5ad0029",
  "source": "pragma solidity ^0.4.11;\n\n/*\n  Copyright 2017, Jorge Izquierdo (Aragon Foundation)\n  Copyright 2017, Jordi Baylina (Giveth)\n\n  Based on MiniMeToken.sol from https://github.com/Giveth/minime\n  Original contract from https://github.com/aragon/aragon-network-token/blob/master/contracts/interface/Controlled.sol\n*/\n\nimport \"./Controlled.sol\";\n\ncontract Burnable is Controlled {\n  /// @notice The address of the controller is the only address that can call\n  ///  a function with this modifier, also the burner can call but also the\n  /// target of the function must be the burner\n  modifier onlyControllerOrBurner(address target) {\n    assert(msg.sender == controller || (msg.sender == burner && msg.sender == target));\n\n    _;\n  }\n\n  modifier onlyBurner {\n    assert(msg.sender == burner);\n    _;\n  }\n  address public burner;\n\n  function Burnable() { burner = msg.sender;}\n\n  /// @notice Changes the burner of the contract\n  /// @param _newBurner The new burner of the contract\n  function changeBurner(address _newBurner) onlyBurner {\n    burner = _newBurner;\n  }\n}\n",
  "sourcePath": "/home/gabriel/audits/mothership-audit/contracts/interface/Burnable.sol",
  "compiler": {
    "name": "solc",
    "version": "0.4.18+commit.9cf6e910.Emscripten.clang"
  },
  "schemaVersion": "1.0.1",
  "updatedAt": "2018-01-22T21:47:40.679Z"
}