{
  "contractName": "Contribution",
  "abi": [
    {
      "constant": true,
      "inputs": [],
      "name": "destEthDevs",
      "outputs": [
        {
          "name": "",
          "type": "address"
        }
      ],
      "payable": false,
      "stateMutability": "view",
      "type": "function"
    },
    {
      "constant": true,
      "inputs": [],
      "name": "endBlock",
      "outputs": [
        {
          "name": "",
          "type": "uint256"
        }
      ],
      "payable": false,
      "stateMutability": "view",
      "type": "function"
    },
    {
      "constant": true,
      "inputs": [],
      "name": "tokensForSale",
      "outputs": [
        {
          "name": "",
          "type": "uint256"
        }
      ],
      "payable": false,
      "stateMutability": "view",
      "type": "function"
    },
    {
      "constant": true,
      "inputs": [],
      "name": "maxCallFrequency",
      "outputs": [
        {
          "name": "",
          "type": "uint256"
        }
      ],
      "payable": false,
      "stateMutability": "view",
      "type": "function"
    },
    {
      "constant": true,
      "inputs": [],
      "name": "minimum_goal",
      "outputs": [
        {
          "name": "",
          "type": "uint256"
        }
      ],
      "payable": false,
      "stateMutability": "view",
      "type": "function"
    },
    {
      "constant": true,
      "inputs": [],
      "name": "mspController",
      "outputs": [
        {
          "name": "",
          "type": "address"
        }
      ],
      "payable": false,
      "stateMutability": "view",
      "type": "function"
    },
    {
      "constant": true,
      "inputs": [],
      "name": "exchangeRate",
      "outputs": [
        {
          "name": "",
          "type": "uint256"
        }
      ],
      "payable": false,
      "stateMutability": "view",
      "type": "function"
    },
    {
      "constant": false,
      "inputs": [
        {
          "name": "_newController",
          "type": "address"
        }
      ],
      "name": "changeController",
      "outputs": [],
      "payable": false,
      "stateMutability": "nonpayable",
      "type": "function"
    },
    {
      "constant": true,
      "inputs": [],
      "name": "maxGasPrice",
      "outputs": [
        {
          "name": "",
          "type": "uint256"
        }
      ],
      "payable": false,
      "stateMutability": "view",
      "type": "function"
    },
    {
      "constant": true,
      "inputs": [],
      "name": "finalizedBlock",
      "outputs": [
        {
          "name": "",
          "type": "uint256"
        }
      ],
      "payable": false,
      "stateMutability": "view",
      "type": "function"
    },
    {
      "constant": false,
      "inputs": [
        {
          "name": "_minimum_investment",
          "type": "uint256"
        }
      ],
      "name": "setMinimumInvestment",
      "outputs": [],
      "payable": false,
      "stateMutability": "nonpayable",
      "type": "function"
    },
    {
      "constant": true,
      "inputs": [],
      "name": "startBlock",
      "outputs": [
        {
          "name": "",
          "type": "uint256"
        }
      ],
      "payable": false,
      "stateMutability": "view",
      "type": "function"
    },
    {
      "constant": false,
      "inputs": [
        {
          "name": "",
          "type": "address"
        },
        {
          "name": "",
          "type": "address"
        },
        {
          "name": "",
          "type": "uint256"
        }
      ],
      "name": "onTransfer",
      "outputs": [
        {
          "name": "",
          "type": "bool"
        }
      ],
      "payable": false,
      "stateMutability": "nonpayable",
      "type": "function"
    },
    {
      "constant": false,
      "inputs": [],
      "name": "pauseContribution",
      "outputs": [],
      "payable": false,
      "stateMutability": "nonpayable",
      "type": "function"
    },
    {
      "constant": false,
      "inputs": [],
      "name": "finalize",
      "outputs": [],
      "payable": false,
      "stateMutability": "nonpayable",
      "type": "function"
    },
    {
      "constant": true,
      "inputs": [
        {
          "name": "",
          "type": "address"
        }
      ],
      "name": "lastCallBlock",
      "outputs": [
        {
          "name": "",
          "type": "uint256"
        }
      ],
      "payable": false,
      "stateMutability": "view",
      "type": "function"
    },
    {
      "constant": false,
      "inputs": [
        {
          "name": "_msp",
          "type": "address"
        },
        {
          "name": "_mspController",
          "type": "address"
        },
        {
          "name": "_totalSupplyCap",
          "type": "uint256"
        },
        {
          "name": "_exchangeRate",
          "type": "uint256"
        },
        {
          "name": "_minimum_goal",
          "type": "uint256"
        },
        {
          "name": "_startBlock",
          "type": "uint256"
        },
        {
          "name": "_endBlock",
          "type": "uint256"
        },
        {
          "name": "_destEthDevs",
          "type": "address"
        },
        {
          "name": "_destTokensSit",
          "type": "address"
        },
        {
          "name": "_destTokensTeam",
          "type": "address"
        },
        {
          "name": "_destTokensReferals",
          "type": "address"
        },
        {
          "name": "_sit",
          "type": "address"
        }
      ],
      "name": "initialize",
      "outputs": [],
      "payable": false,
      "stateMutability": "nonpayable",
      "type": "function"
    },
    {
      "constant": true,
      "inputs": [],
      "name": "paused",
      "outputs": [
        {
          "name": "",
          "type": "bool"
        }
      ],
      "payable": false,
      "stateMutability": "view",
      "type": "function"
    },
    {
      "constant": true,
      "inputs": [],
      "name": "destTokensSit",
      "outputs": [
        {
          "name": "",
          "type": "address"
        }
      ],
      "payable": false,
      "stateMutability": "view",
      "type": "function"
    },
    {
      "constant": true,
      "inputs": [],
      "name": "tokensIssued",
      "outputs": [
        {
          "name": "",
          "type": "uint256"
        }
      ],
      "payable": false,
      "stateMutability": "view",
      "type": "function"
    },
    {
      "constant": true,
      "inputs": [],
      "name": "destTokensTeam",
      "outputs": [
        {
          "name": "",
          "type": "address"
        }
      ],
      "payable": false,
      "stateMutability": "view",
      "type": "function"
    },
    {
      "constant": true,
      "inputs": [],
      "name": "totalSold",
      "outputs": [
        {
          "name": "",
          "type": "uint256"
        }
      ],
      "payable": false,
      "stateMutability": "view",
      "type": "function"
    },
    {
      "constant": true,
      "inputs": [],
      "name": "sit",
      "outputs": [
        {
          "name": "",
          "type": "address"
        }
      ],
      "payable": false,
      "stateMutability": "view",
      "type": "function"
    },
    {
      "constant": true,
      "inputs": [],
      "name": "msp",
      "outputs": [
        {
          "name": "",
          "type": "address"
        }
      ],
      "payable": false,
      "stateMutability": "view",
      "type": "function"
    },
    {
      "constant": true,
      "inputs": [],
      "name": "minimum_investment",
      "outputs": [
        {
          "name": "",
          "type": "uint256"
        }
      ],
      "payable": false,
      "stateMutability": "view",
      "type": "function"
    },
    {
      "constant": true,
      "inputs": [],
      "name": "initializedBlock",
      "outputs": [
        {
          "name": "",
          "type": "uint256"
        }
      ],
      "payable": false,
      "stateMutability": "view",
      "type": "function"
    },
    {
      "constant": false,
      "inputs": [],
      "name": "finalized",
      "outputs": [
        {
          "name": "",
          "type": "bool"
        }
      ],
      "payable": false,
      "stateMutability": "nonpayable",
      "type": "function"
    },
    {
      "constant": false,
      "inputs": [],
      "name": "resumeContribution",
      "outputs": [],
      "payable": false,
      "stateMutability": "nonpayable",
      "type": "function"
    },
    {
      "constant": true,
      "inputs": [],
      "name": "totalSaleSupplyCap",
      "outputs": [
        {
          "name": "",
          "type": "uint256"
        }
      ],
      "payable": false,
      "stateMutability": "view",
      "type": "function"
    },
    {
      "constant": true,
      "inputs": [],
      "name": "totalSupplyCap",
      "outputs": [
        {
          "name": "",
          "type": "uint256"
        }
      ],
      "payable": false,
      "stateMutability": "view",
      "type": "function"
    },
    {
      "constant": true,
      "inputs": [],
      "name": "destTokensReferals",
      "outputs": [
        {
          "name": "",
          "type": "address"
        }
      ],
      "payable": false,
      "stateMutability": "view",
      "type": "function"
    },
    {
      "constant": false,
      "inputs": [
        {
          "name": "",
          "type": "address"
        },
        {
          "name": "",
          "type": "address"
        },
        {
          "name": "",
          "type": "uint256"
        }
      ],
      "name": "onApprove",
      "outputs": [
        {
          "name": "",
          "type": "bool"
        }
      ],
      "payable": false,
      "stateMutability": "nonpayable",
      "type": "function"
    },
    {
      "constant": false,
      "inputs": [
        {
          "name": "_token",
          "type": "address"
        }
      ],
      "name": "claimTokens",
      "outputs": [],
      "payable": false,
      "stateMutability": "nonpayable",
      "type": "function"
    },
    {
      "constant": false,
      "inputs": [
        {
          "name": "_th",
          "type": "address"
        }
      ],
      "name": "proxyPayment",
      "outputs": [
        {
          "name": "",
          "type": "bool"
        }
      ],
      "payable": true,
      "stateMutability": "payable",
      "type": "function"
    },
    {
      "constant": true,
      "inputs": [],
      "name": "controller",
      "outputs": [
        {
          "name": "",
          "type": "address"
        }
      ],
      "payable": false,
      "stateMutability": "view",
      "type": "function"
    },
    {
      "constant": true,
      "inputs": [],
      "name": "finalizedTime",
      "outputs": [
        {
          "name": "",
          "type": "uint256"
        }
      ],
      "payable": false,
      "stateMutability": "view",
      "type": "function"
    },
    {
      "inputs": [],
      "payable": false,
      "stateMutability": "nonpayable",
      "type": "constructor"
    },
    {
      "payable": true,
      "stateMutability": "payable",
      "type": "fallback"
    },
    {
      "anonymous": false,
      "inputs": [
        {
          "indexed": true,
          "name": "_token",
          "type": "address"
        },
        {
          "indexed": true,
          "name": "_controller",
          "type": "address"
        },
        {
          "indexed": false,
          "name": "_amount",
          "type": "uint256"
        }
      ],
      "name": "ClaimedTokens",
      "type": "event"
    },
    {
      "anonymous": false,
      "inputs": [
        {
          "indexed": true,
          "name": "_th",
          "type": "address"
        },
        {
          "indexed": false,
          "name": "_amount",
          "type": "uint256"
        },
        {
          "indexed": false,
          "name": "_tokens",
          "type": "uint256"
        }
      ],
      "name": "NewSale",
      "type": "event"
    },
    {
      "anonymous": false,
      "inputs": [],
      "name": "Finalized",
      "type": "event"
    }
  ],
  "bytecode": "0x6060604052341561000f57600080fd5b336000806101000a81548173ffffffffffffffffffffffffffffffffffffffff021916908373ffffffffffffffffffffffffffffffffffffffff1602179055506000601460006101000a81548160ff021916908315150217905550612935806100796000396000f3006060604052600436106101c2576000357c0100000000000000000000000000000000000000000000000000000000900463ffffffff16806301621527146101ea578063083c63231461023f57806312aef8c31461026857806317183ca314610291578063184b1912146102ba578063372a49bd146102e35780633ba0b9a9146103385780633cebb823146103615780633de39c111461039a5780634084c3ab146103c357806345f826da146103ec57806348cd4cb11461040f5780634a393149146104385780634b8adcf7146104b15780634bb278f3146104c6578063548e0846146104db5780635628fc09146105285780635c975abb1461064857806377a0e875146106755780637c48bbda146106ca57806385cc51c2146106f35780639106d7ba14610748578063a794457914610771578063a8267482146107c6578063a8f07dcc1461081b578063ada5cf6314610844578063b3f05b971461086d578063b681f9f61461089a578063ba2318ca146108af578063bb102aea146108d8578063bc8cb3f914610901578063da682aeb14610956578063df8de3e7146109cf578063f48c305414610a08578063f77c479114610a4e578063fe67a18914610aa3575b601460009054906101000a900460ff161515156101de57600080fd5b6101e733610acc565b50005b34156101f557600080fd5b6101fd610bea565b604051808273ffffffffffffffffffffffffffffffffffffffff1673ffffffffffffffffffffffffffffffffffffffff16815260200191505060405180910390f35b341561024a57600080fd5b610252610c10565b6040518082815260200191505060405180910390f35b341561027357600080fd5b61027b610c16565b6040518082815260200191505060405180910390f35b341561029c57600080fd5b6102a4610c37565b6040518082815260200191505060405180910390f35b34156102c557600080fd5b6102cd610c3c565b6040518082815260200191505060405180910390f35b34156102ee57600080fd5b6102f6610c42565b604051808273ffffffffffffffffffffffffffffffffffffffff1673ffffffffffffffffffffffffffffffffffffffff16815260200191505060405180910390f35b341561034357600080fd5b61034b610c68565b6040518082815260200191505060405180910390f35b341561036c57600080fd5b610398600480803573ffffffffffffffffffffffffffffffffffffffff16906020019091905050610c6e565b005b34156103a557600080fd5b6103ad610d0c565b6040518082815260200191505060405180910390f35b34156103ce57600080fd5b6103d6610d15565b6040518082815260200191505060405180910390f35b34156103f757600080fd5b61040d6004808035906020019091905050610d1b565b005b341561041a57600080fd5b610422610d80565b6040518082815260200191505060405180910390f35b341561044357600080fd5b610497600480803573ffffffffffffffffffffffffffffffffffffffff1690602001909190803573ffffffffffffffffffffffffffffffffffffffff16906020019091908035906020019091905050610d86565b604051808215151515815260200191505060405180910390f35b34156104bc57600080fd5b6104c4610d92565b005b34156104d157600080fd5b6104d9610e0a565b005b34156104e657600080fd5b610512600480803573ffffffffffffffffffffffffffffffffffffffff1690602001909190505061154b565b6040518082815260200191505060405180910390f35b341561053357600080fd5b610646600480803573ffffffffffffffffffffffffffffffffffffffff1690602001909190803573ffffffffffffffffffffffffffffffffffffffff1690602001909190803590602001909190803590602001909190803590602001909190803590602001909190803590602001909190803573ffffffffffffffffffffffffffffffffffffffff1690602001909190803573ffffffffffffffffffffffffffffffffffffffff1690602001909190803573ffffffffffffffffffffffffffffffffffffffff1690602001909190803573ffffffffffffffffffffffffffffffffffffffff1690602001909190803573ffffffffffffffffffffffffffffffffffffffff16906020019091905050611563565b005b341561065357600080fd5b61065b611c6b565b604051808215151515815260200191505060405180910390f35b341561068057600080fd5b610688611c7e565b604051808273ffffffffffffffffffffffffffffffffffffffff1673ffffffffffffffffffffffffffffffffffffffff16815260200191505060405180910390f35b34156106d557600080fd5b6106dd611ca4565b6040518082815260200191505060405180910390f35b34156106fe57600080fd5b610706611d54565b604051808273ffffffffffffffffffffffffffffffffffffffff1673ffffffffffffffffffffffffffffffffffffffff16815260200191505060405180910390f35b341561075357600080fd5b61075b611d7a565b6040518082815260200191505060405180910390f35b341561077c57600080fd5b610784611d80565b604051808273ffffffffffffffffffffffffffffffffffffffff1673ffffffffffffffffffffffffffffffffffffffff16815260200191505060405180910390f35b34156107d157600080fd5b6107d9611da6565b604051808273ffffffffffffffffffffffffffffffffffffffff1673ffffffffffffffffffffffffffffffffffffffff16815260200191505060405180910390f35b341561082657600080fd5b61082e611dcc565b6040518082815260200191505060405180910390f35b341561084f57600080fd5b610857611dd2565b6040518082815260200191505060405180910390f35b341561087857600080fd5b610880611dd8565b604051808215151515815260200191505060405180910390f35b34156108a557600080fd5b6108ad611ddd565b005b34156108ba57600080fd5b6108c2611e55565b6040518082815260200191505060405180910390f35b34156108e357600080fd5b6108eb611e5b565b6040518082815260200191505060405180910390f35b341561090c57600080fd5b610914611e61565b604051808273ffffffffffffffffffffffffffffffffffffffff1673ffffffffffffffffffffffffffffffffffffffff16815260200191505060405180910390f35b341561096157600080fd5b6109b5600480803573ffffffffffffffffffffffffffffffffffffffff1690602001909190803573ffffffffffffffffffffffffffffffffffffffff16906020019091908035906020019091905050611e87565b604051808215151515815260200191505060405180910390f35b34156109da57600080fd5b610a06600480803573ffffffffffffffffffffffffffffffffffffffff16906020019091905050611e93565b005b610a34600480803573ffffffffffffffffffffffffffffffffffffffff16906020019091905050610acc565b604051808215151515815260200191505060405180910390f35b3415610a5957600080fd5b610a61612371565b604051808273ffffffffffffffffffffffffffffffffffffffff1673ffffffffffffffffffffffffffffffffffffffff16815260200191505060405180910390f35b3415610aae57600080fd5b610ab6612396565b6040518082815260200191505060405180910390f35b6000601460009054906101000a900460ff16151515610aea57600080fd5b6000600660009054906101000a900473ffffffffffffffffffffffffffffffffffffffff1673ffffffffffffffffffffffffffffffffffffffff1614151515610b3257600080fd5b600754610b3d61239c565b10158015610b545750600854610b5161239c565b11155b8015610b6257506000600e54145b8015610ba757506000600660009054906101000a900473ffffffffffffffffffffffffffffffffffffffff1673ffffffffffffffffffffffffffffffffffffffff1614155b1515610bb257600080fd5b60008273ffffffffffffffffffffffffffffffffffffffff1614151515610bd857600080fd5b610be1826123a4565b60019050919050565b600960009054906101000a900473ffffffffffffffffffffffffffffffffffffffff1681565b60085481565b600060035460045411610c2a576000610c32565b600354600454035b905090565b606481565b60125481565b600d60009054906101000a900473ffffffffffffffffffffffffffffffffffffffff1681565b60025481565b6000809054906101000a900473ffffffffffffffffffffffffffffffffffffffff1673ffffffffffffffffffffffffffffffffffffffff163373ffffffffffffffffffffffffffffffffffffffff16141515610cc957600080fd5b806000806101000a81548173ffffffffffffffffffffffffffffffffffffffff021916908373ffffffffffffffffffffffffffffffffffffffff16021790555050565b640ba43b740081565b600e5481565b6000809054906101000a900473ffffffffffffffffffffffffffffffffffffffff1673ffffffffffffffffffffffffffffffffffffffff163373ffffffffffffffffffffffffffffffffffffffff16141515610d7657600080fd5b8060118190555050565b60075481565b60008090509392505050565b6000809054906101000a900473ffffffffffffffffffffffffffffffffffffffff1673ffffffffffffffffffffffffffffffffffffffff163373ffffffffffffffffffffffffffffffffffffffff16141515610ded57600080fd5b6001601460006101000a81548160ff021916908315150217905550565b6000600660009054906101000a900473ffffffffffffffffffffffffffffffffffffffff1673ffffffffffffffffffffffffffffffffffffffff1614151515610e5257600080fd5b600754610e5d61239c565b10151515610e6a57600080fd5b601254610f2a600354600560009054906101000a900473ffffffffffffffffffffffffffffffffffffffff1673ffffffffffffffffffffffffffffffffffffffff166318160ddd6000604051602001526040518163ffffffff167c0100000000000000000000000000000000000000000000000000000000028152600401602060405180830381600087803b1515610f0157600080fd5b6102c65a03f11515610f1257600080fd5b5050506040518051905061282590919063ffffffff16565b10151515610f3757600080fd5b6000809054906101000a900473ffffffffffffffffffffffffffffffffffffffff1673ffffffffffffffffffffffffffffffffffffffff163373ffffffffffffffffffffffffffffffffffffffff161480610f9a5750600854610f9861239c565b115b80610fac57506000610faa610c16565b145b1515610fb757600080fd5b6000600e54141515610fc857600080fd5b610fd061239c565b600e8190555042601081905550600660009054906101000a900473ffffffffffffffffffffffffffffffffffffffff1673ffffffffffffffffffffffffffffffffffffffff1663827f32c0600b60009054906101000a900473ffffffffffffffffffffffffffffffffffffffff1661107761104b6064612843565b61106960015461105b6005612843565b61286690919063ffffffff16565b61289990919063ffffffff16565b6000604051602001526040518363ffffffff167c0100000000000000000000000000000000000000000000000000000000028152600401808373ffffffffffffffffffffffffffffffffffffffff1673ffffffffffffffffffffffffffffffffffffffff16815260200182815260200192505050602060405180830381600087803b151561110457600080fd5b6102c65a03f1151561111557600080fd5b50505060405180519050151561112757fe5b600660009054906101000a900473ffffffffffffffffffffffffffffffffffffffff1673ffffffffffffffffffffffffffffffffffffffff1663827f32c0600c60009054906101000a900473ffffffffffffffffffffffffffffffffffffffff166111c16111956064612843565b6111b36001546111a56005612843565b61286690919063ffffffff16565b61289990919063ffffffff16565b6000604051602001526040518363ffffffff167c0100000000000000000000000000000000000000000000000000000000028152600401808373ffffffffffffffffffffffffffffffffffffffff1673ffffffffffffffffffffffffffffffffffffffff16815260200182815260200192505050602060405180830381600087803b151561124e57600080fd5b6102c65a03f1151561125f57600080fd5b50505060405180519050151561127157fe5b600660009054906101000a900473ffffffffffffffffffffffffffffffffffffffff1673ffffffffffffffffffffffffffffffffffffffff1663827f32c0600a60009054906101000a900473ffffffffffffffffffffffffffffffffffffffff16600560009054906101000a900473ffffffffffffffffffffffffffffffffffffffff1673ffffffffffffffffffffffffffffffffffffffff166318160ddd6000604051602001526040518163ffffffff167c0100000000000000000000000000000000000000000000000000000000028152600401602060405180830381600087803b151561136057600080fd5b6102c65a03f1151561137157600080fd5b505050604051805190506000604051602001526040518363ffffffff167c0100000000000000000000000000000000000000000000000000000000028152600401808373ffffffffffffffffffffffffffffffffffffffff1673ffffffffffffffffffffffffffffffffffffffff16815260200182815260200192505050602060405180830381600087803b151561140857600080fd5b6102c65a03f1151561141957600080fd5b50505060405180519050151561142b57fe5b600660009054906101000a900473ffffffffffffffffffffffffffffffffffffffff1673ffffffffffffffffffffffffffffffffffffffff16633cebb823600d60009054906101000a900473ffffffffffffffffffffffffffffffffffffffff166040518263ffffffff167c0100000000000000000000000000000000000000000000000000000000028152600401808273ffffffffffffffffffffffffffffffffffffffff1673ffffffffffffffffffffffffffffffffffffffff168152602001915050600060405180830381600087803b151561150957600080fd5b6102c65a03f1151561151a57600080fd5b5050507f6823b073d48d6e3a7d385eeb601452d680e74bb46afe3255a7d778f3a9b1768160405160405180910390a1565b60136020528060005260406000206000915090505481565b6000809054906101000a900473ffffffffffffffffffffffffffffffffffffffff1673ffffffffffffffffffffffffffffffffffffffff163373ffffffffffffffffffffffffffffffffffffffff161415156115be57600080fd5b6000600660009054906101000a900473ffffffffffffffffffffffffffffffffffffffff1673ffffffffffffffffffffffffffffffffffffffff1614151561160557600080fd5b8b600660006101000a81548173ffffffffffffffffffffffffffffffffffffffff021916908373ffffffffffffffffffffffffffffffffffffffff1602179055506000600660009054906101000a900473ffffffffffffffffffffffffffffffffffffffff1673ffffffffffffffffffffffffffffffffffffffff166318160ddd6000604051602001526040518163ffffffff167c0100000000000000000000000000000000000000000000000000000000028152600401602060405180830381600087803b15156116d657600080fd5b6102c65a03f115156116e757600080fd5b505050604051805190501415156116fd57600080fd5b3073ffffffffffffffffffffffffffffffffffffffff16600660009054906101000a900473ffffffffffffffffffffffffffffffffffffffff1673ffffffffffffffffffffffffffffffffffffffff1663f77c47916000604051602001526040518163ffffffff167c0100000000000000000000000000000000000000000000000000000000028152600401602060405180830381600087803b15156117a257600080fd5b6102c65a03f115156117b357600080fd5b5050506040518051905073ffffffffffffffffffffffffffffffffffffffff161415156117df57600080fd5b6012600660009054906101000a900473ffffffffffffffffffffffffffffffffffffffff1673ffffffffffffffffffffffffffffffffffffffff1663313ce5676000604051602001526040518163ffffffff167c0100000000000000000000000000000000000000000000000000000000028152600401602060405180830381600087803b151561186f57600080fd5b6102c65a03f1151561188057600080fd5b5050506040518051905060ff1614151561189957600080fd5b60008b73ffffffffffffffffffffffffffffffffffffffff16141515156118bf57600080fd5b8a600d60006101000a81548173ffffffffffffffffffffffffffffffffffffffff021916908373ffffffffffffffffffffffffffffffffffffffff16021790555060008911151561190f57600080fd5b8860028190555061191e61239c565b871015151561192c57600080fd5b858710151561193a57600080fd5b866007819055508560088190555060008573ffffffffffffffffffffffffffffffffffffffff161415151561196e57600080fd5b84600960006101000a81548173ffffffffffffffffffffffffffffffffffffffff021916908373ffffffffffffffffffffffffffffffffffffffff16021790555060008473ffffffffffffffffffffffffffffffffffffffff16141515156119d557600080fd5b83600a60006101000a81548173ffffffffffffffffffffffffffffffffffffffff021916908373ffffffffffffffffffffffffffffffffffffffff16021790555060008373ffffffffffffffffffffffffffffffffffffffff1614151515611a3c57600080fd5b82600b60006101000a81548173ffffffffffffffffffffffffffffffffffffffff021916908373ffffffffffffffffffffffffffffffffffffffff16021790555060008273ffffffffffffffffffffffffffffffffffffffff1614151515611aa357600080fd5b81600c60006101000a81548173ffffffffffffffffffffffffffffffffffffffff021916908373ffffffffffffffffffffffffffffffffffffffff16021790555060008173ffffffffffffffffffffffffffffffffffffffff1614151515611b0a57600080fd5b80600560006101000a81548173ffffffffffffffffffffffffffffffffffffffff021916908373ffffffffffffffffffffffffffffffffffffffff1602179055508960058060009054906101000a900473ffffffffffffffffffffffffffffffffffffffff1673ffffffffffffffffffffffffffffffffffffffff166318160ddd6000604051602001526040518163ffffffff167c0100000000000000000000000000000000000000000000000000000000028152600401602060405180830381600087803b1515611bdb57600080fd5b6102c65a03f11515611bec57600080fd5b505050604051805190500211151515611c0457600080fd5b89600181905550611c42611c186064612843565b611c348c611c266046612843565b61286690919063ffffffff16565b61289990919063ffffffff16565b60048190555087601281905550611c5761239c565b600f81905550505050505050505050505050565b601460009054906101000a900460ff1681565b600a60009054906101000a900473ffffffffffffffffffffffffffffffffffffffff1681565b6000600660009054906101000a900473ffffffffffffffffffffffffffffffffffffffff1673ffffffffffffffffffffffffffffffffffffffff166318160ddd6000604051602001526040518163ffffffff167c0100000000000000000000000000000000000000000000000000000000028152600401602060405180830381600087803b1515611d3457600080fd5b6102c65a03f11515611d4557600080fd5b50505060405180519050905090565b600b60009054906101000a900473ffffffffffffffffffffffffffffffffffffffff1681565b60035481565b600560009054906101000a900473ffffffffffffffffffffffffffffffffffffffff1681565b600660009054906101000a900473ffffffffffffffffffffffffffffffffffffffff1681565b60115481565b600f5481565b600090565b6000809054906101000a900473ffffffffffffffffffffffffffffffffffffffff1673ffffffffffffffffffffffffffffffffffffffff163373ffffffffffffffffffffffffffffffffffffffff16141515611e3857600080fd5b6000601460006101000a81548160ff021916908315150217905550565b60045481565b60015481565b600c60009054906101000a900473ffffffffffffffffffffffffffffffffffffffff1681565b60008090509392505050565b6000806000809054906101000a900473ffffffffffffffffffffffffffffffffffffffff1673ffffffffffffffffffffffffffffffffffffffff163373ffffffffffffffffffffffffffffffffffffffff16141515611ef157600080fd5b3073ffffffffffffffffffffffffffffffffffffffff16600660009054906101000a900473ffffffffffffffffffffffffffffffffffffffff1673ffffffffffffffffffffffffffffffffffffffff1663f77c47916000604051602001526040518163ffffffff167c0100000000000000000000000000000000000000000000000000000000028152600401602060405180830381600087803b1515611f9657600080fd5b6102c65a03f11515611fa757600080fd5b5050506040518051905073ffffffffffffffffffffffffffffffffffffffff16141561209e57600660009054906101000a900473ffffffffffffffffffffffffffffffffffffffff1673ffffffffffffffffffffffffffffffffffffffff1663df8de3e7846040518263ffffffff167c0100000000000000000000000000000000000000000000000000000000028152600401808273ffffffffffffffffffffffffffffffffffffffff1673ffffffffffffffffffffffffffffffffffffffff168152602001915050600060405180830381600087803b151561208957600080fd5b6102c65a03f1151561209a57600080fd5b5050505b60008373ffffffffffffffffffffffffffffffffffffffff16141561213a576000809054906101000a900473ffffffffffffffffffffffffffffffffffffffff1673ffffffffffffffffffffffffffffffffffffffff166108fc3073ffffffffffffffffffffffffffffffffffffffff16319081150290604051600060405180830381858888f19350505050151561213557600080fd5b61236c565b8291508173ffffffffffffffffffffffffffffffffffffffff166370a08231306000604051602001526040518263ffffffff167c0100000000000000000000000000000000000000000000000000000000028152600401808273ffffffffffffffffffffffffffffffffffffffff1673ffffffffffffffffffffffffffffffffffffffff168152602001915050602060405180830381600087803b15156121e057600080fd5b6102c65a03f115156121f157600080fd5b5050506040518051905090508173ffffffffffffffffffffffffffffffffffffffff1663a9059cbb6000809054906101000a900473ffffffffffffffffffffffffffffffffffffffff16836000604051602001526040518363ffffffff167c0100000000000000000000000000000000000000000000000000000000028152600401808373ffffffffffffffffffffffffffffffffffffffff1673ffffffffffffffffffffffffffffffffffffffff16815260200182815260200192505050602060405180830381600087803b15156122c957600080fd5b6102c65a03f115156122da57600080fd5b50505060405180519050506000809054906101000a900473ffffffffffffffffffffffffffffffffffffffff1673ffffffffffffffffffffffffffffffffffffffff168373ffffffffffffffffffffffffffffffffffffffff167ff931edb47c50b4b4104c187b5814a9aef5f709e17e2ecf9617e860cacade929c836040518082815260200191505060405180910390a35b505050565b6000809054906101000a900473ffffffffffffffffffffffffffffffffffffffff1681565b60105481565b600043905090565b6000806000806000640ba43b74003a111515156123c057600080fd5b60115434101515156123d157600080fd5b600660009054906101000a900473ffffffffffffffffffffffffffffffffffffffff1673ffffffffffffffffffffffffffffffffffffffff163373ffffffffffffffffffffffffffffffffffffffff16141561242f57859450612433565b3394505b61243c856128b4565b15151561244857600080fd5b60646124a3601360008873ffffffffffffffffffffffffffffffffffffffff1673ffffffffffffffffffffffffffffffffffffffff1681526020019081526020016000205461249561239c565b6128f090919063ffffffff16565b101515156124b057600080fd5b6124b861239c565b601360008773ffffffffffffffffffffffffffffffffffffffff1673ffffffffffffffffffffffffffffffffffffffff16815260200190815260200160002081905550349350612506610c16565b9250600084111561272257600083111561271c5761252f6002548561286690919063ffffffff16565b915082821115612554578291506125516002548461289990919063ffffffff16565b93505b600660009054906101000a900473ffffffffffffffffffffffffffffffffffffffff1673ffffffffffffffffffffffffffffffffffffffff1663827f32c087846000604051602001526040518363ffffffff167c0100000000000000000000000000000000000000000000000000000000028152600401808373ffffffffffffffffffffffffffffffffffffffff1673ffffffffffffffffffffffffffffffffffffffff16815260200182815260200192505050602060405180830381600087803b151561262157600080fd5b6102c65a03f1151561263257600080fd5b50505060405180519050151561264457fe5b6126598260035461282590919063ffffffff16565b600381905550600960009054906101000a900473ffffffffffffffffffffffffffffffffffffffff1673ffffffffffffffffffffffffffffffffffffffff166108fc859081150290604051600060405180830381858888f1935050505015156126c157600080fd5b8573ffffffffffffffffffffffffffffffffffffffff167fa3ed4207b1480804a4590a74f4b9cc310dc0fc839af8d10e2141ca3b72fd93488584604051808381526020018281526020019250505060405180910390a2612721565b600093505b5b61273584346128f090919063ffffffff16565b9050600081111561281d57600660009054906101000a900473ffffffffffffffffffffffffffffffffffffffff1673ffffffffffffffffffffffffffffffffffffffff163373ffffffffffffffffffffffffffffffffffffffff1614156127db578573ffffffffffffffffffffffffffffffffffffffff166108fc829081150290604051600060405180830381858888f1935050505015156127d657600080fd5b61281c565b3373ffffffffffffffffffffffffffffffffffffffff166108fc829081150290604051600060405180830381858888f19350505050151561281b57600080fd5b5b5b505050505050565b600080828401905083811015151561283957fe5b8091505092915050565b600061285f662386f26fc100008361286690919063ffffffff16565b9050919050565b60008082840290506000841480612887575082848281151561288457fe5b04145b151561288f57fe5b8091505092915050565b60008082848115156128a757fe5b0490508091505092915050565b60008060008373ffffffffffffffffffffffffffffffffffffffff1614156128df57600091506128ea565b823b90506000811191505b50919050565b60008282111515156128fe57fe5b8183039050929150505600a165627a7a72305820da94121b499a8831ca6621a93ed35facaec7e02feab0de589977447941fe39a10029",
  "source": "pragma solidity ^0.4.11;\n\nimport \"./misc/SafeMath.sol\";\nimport \"./interface/Controlled.sol\";\nimport \"./interface/TokenController.sol\";\nimport \"./interface/MiniMeTokenI.sol\";\nimport \"./interface/Finalizable.sol\";\n\n/*\n  Copyright 2017, Anton Egorov (Mothership Foundation)\n  Copyright 2017, Jordi Baylina (Giveth)\n\n  This program is free software: you can redistribute it and/or modify\n  it under the terms of the GNU General Public License as published by\n  the Free Software Foundation, either version 3 of the License, or\n  (at your option) any later version.\n\n  This program is distributed in the hope that it will be useful,\n  but WITHOUT ANY WARRANTY; without even the implied warranty of\n  MERCHANTABILITY or FITNESS FOR A PARTICULAR PURPOSE.  See the\n  GNU General Public License for more details.\n\n  You should have received a copy of the GNU General Public License\n  along with this program.  If not, see <http://www.gnu.org/licenses/>.\n\n  Based on SampleCampaign-TokenController.sol from https://github.com/Giveth/minime\n  Original contract is https://github.com/status-im/status-network-token/blob/master/contracts/StatusContribution.sol\n*/\n\ncontract Contribution is Controlled, TokenController, Finalizable {\n  using SafeMath for uint256;\n\n  uint256 constant public maxGasPrice = 50000000000;\n  uint256 constant public maxCallFrequency = 100;\n\n  uint256 public totalSupplyCap; // Total MSP supply to be generated\n  uint256 public exchangeRate; // ETH-MSP exchange rate\n  uint256 public totalSold; // How much tokens sold\n  uint256 public totalSaleSupplyCap; // Token sale cap\n\n  MiniMeTokenI public sit;\n  MiniMeTokenI public msp;\n\n  uint256 public startBlock;\n  uint256 public endBlock;\n\n  address public destEthDevs;\n  address public destTokensSit;\n  address public destTokensTeam;\n  address public destTokensReferals;\n\n  address public mspController;\n\n  uint256 public finalizedBlock;\n  uint256 public initializedBlock;\n  uint256 public finalizedTime;\n\n  uint256 public minimum_investment;\n  uint256 public minimum_goal;\n\n  mapping (address => uint256) public lastCallBlock;\n\n  bool public paused;\n\n  modifier initialized() {\n    require(address(msp) != 0x0);\n    _;\n  }\n\n  modifier contributionOpen() {\n    require(getBlockNumber() >= startBlock &&\n            getBlockNumber() <= endBlock &&\n            finalizedBlock == 0 &&\n            address(msp) != 0x0);\n    _;\n  }\n\n  modifier notPaused() {\n    require(!paused);\n    _;\n  }\n\n  function Contribution() {\n    // Booleans are false by default consider removing this\n    paused = false;\n  }\n\n  /// @notice This method should be called by the controller before the contribution\n  ///  period starts This initializes most of the parameters\n  /// @param _msp Address of the MSP token contract\n  /// @param _mspController Token controller for the MSP that will be transferred after\n  ///  the contribution finalizes.\n  /// @param _totalSupplyCap Maximum amount of tokens to generate during the contribution\n  /// @param _exchangeRate ETH to MSP rate for the token sale\n  /// @param _startBlock Block when the contribution period starts\n  /// @param _endBlock The last block that the contribution period is active\n  /// @param _destEthDevs Destination address where the contribution ether is sent\n  /// @param _destTokensSit Address of the exchanger SIT-MSP where the MSP are sent\n  ///  to be distributed to the SIT holders.\n  /// @param _destTokensTeam Address where the tokens for the team are sent\n  /// @param _destTokensReferals Address where the tokens for the referal system are sent\n  /// @param _sit Address of the SIT token contract\n  function initialize(\n      address _msp,\n      address _mspController,\n\n      uint256 _totalSupplyCap,\n      uint256 _exchangeRate,\n      uint256 _minimum_goal,\n\n      uint256 _startBlock,\n      uint256 _endBlock,\n\n      address _destEthDevs,\n      address _destTokensSit,\n      address _destTokensTeam,\n      address _destTokensReferals,\n\n      address _sit\n  ) public onlyController {\n    // Initialize only once\n    require(address(msp) == 0x0);\n\n    msp = MiniMeTokenI(_msp);\n    require(msp.totalSupply() == 0);\n    require(msp.controller() == address(this));\n    require(msp.decimals() == 18);  // Same amount of decimals as ETH\n\n    require(_mspController != 0x0);\n    mspController = _mspController;\n\n    require(_exchangeRate > 0);\n    exchangeRate = _exchangeRate;\n\n    require(_startBlock >= getBlockNumber());\n    require(_startBlock < _endBlock);\n    startBlock = _startBlock;\n    endBlock = _endBlock;\n\n    require(_destEthDevs != 0x0);\n    destEthDevs = _destEthDevs;\n\n    require(_destTokensSit != 0x0);\n    destTokensSit = _destTokensSit;\n\n    require(_destTokensTeam != 0x0);\n    destTokensTeam = _destTokensTeam;\n\n    require(_destTokensReferals != 0x0);\n    destTokensReferals = _destTokensReferals;\n\n    require(_sit != 0x0);\n    sit = MiniMeTokenI(_sit);\n\n    // SIT amount should be no more than 20% of MSP total supply cap\n    require(MiniMeTokenI(sit).totalSupply() * 5 <= _totalSupplyCap);\n    totalSupplyCap = _totalSupplyCap;\n\n    // We are going to sale 70% of total supply cap\n    totalSaleSupplyCap = percent(70).mul(_totalSupplyCap).div(percent(100));\n\n    minimum_goal = _minimum_goal;\n    initializedBlock = getBlockNumber();\n  }\n\n  function setMinimumInvestment(\n      uint _minimum_investment\n  ) public onlyController {\n    minimum_investment = _minimum_investment;\n  }\n\n  /// @notice If anybody sends Ether directly to this contract, consider he is\n  ///  getting MSPs.\n  function () public payable notPaused {\n    proxyPayment(msg.sender);\n  }\n\n\n  //////////\n  // TokenController functions\n  //////////\n\n  /// @notice This method will generally be called by the MSP token contract to\n  ///  acquire MSPs. Or directly from third parties that want to acquire MSPs in\n  ///  behalf of a token holder.\n  /// @param _th MSP holder where the MSPs will be minted.\n  function proxyPayment(address _th) public payable notPaused initialized contributionOpen returns (bool) {\n    require(_th != 0x0);\n    doBuy(_th);\n    return true;\n  }\n\n  function onTransfer(address, address, uint256) public returns (bool) {\n    return false;\n  }\n\n  function onApprove(address, address, uint256) public returns (bool) {\n    return false;\n  }\n\n  function doBuy(address _th) internal {\n    require(tx.gasprice <= maxGasPrice);\n    require(msg.value >= minimum_investment);\n\n    // Antispam mechanism\n    address caller;\n    if (msg.sender == address(msp)) {\n      caller = _th;\n    } else {\n      caller = msg.sender;\n    }\n\n    // Do not allow contracts to game the system\n    require(!isContract(caller));\n\n    require(getBlockNumber().sub(lastCallBlock[caller]) >= maxCallFrequency);\n    lastCallBlock[caller] = getBlockNumber();\n\n    uint256 toFund = msg.value;\n    uint256 leftForSale = tokensForSale();\n    if (toFund > 0) {\n      if (leftForSale > 0) {\n        uint256 tokensGenerated = toFund.mul(exchangeRate);\n\n        // Check total supply cap reached, sell the all remaining tokens\n        if (tokensGenerated > leftForSale) {\n          tokensGenerated = leftForSale;\n          toFund = leftForSale.div(exchangeRate);\n        }\n\n        assert(msp.generateTokens(_th, tokensGenerated));\n        totalSold = totalSold.add(tokensGenerated);\n        destEthDevs.transfer(toFund);\n        NewSale(_th, toFund, tokensGenerated);\n      } else {\n        toFund = 0;\n      }\n    }\n\n    uint256 toReturn = msg.value.sub(toFund);\n    if (toReturn > 0) {\n      // If the call comes from the Token controller,\n      // then we return it to the token Holder.\n      // Otherwise we return to the sender.\n      if (msg.sender == address(msp)) {\n        _th.transfer(toReturn);\n      } else {\n        msg.sender.transfer(toReturn);\n      }\n    }\n  }\n\n  /// @dev Internal function to determine if an address is a contract\n  /// @param _addr The address being queried\n  /// @return True if `_addr` is a contract\n  function isContract(address _addr) constant internal returns (bool) {\n    if (_addr == 0) return false;\n    uint256 size;\n    assembly {\n      size := extcodesize(_addr)\n    }\n    return (size > 0);\n  }\n\n  function finalized() public returns (bool) {\n    finalizedBlock != 0;\n  }\n\n  /// @notice This method will can be called by the controller before the contribution period\n  ///  end or by anybody after the `endBlock`. This method finalizes the contribution period\n  ///  by creating the remaining tokens and transferring the controller to the configured\n  ///  controller.\n  function finalize() public initialized {\n    require(getBlockNumber() >= startBlock);\n    require(sit.totalSupply().add(totalSold) >= minimum_goal);\n    require(msg.sender == controller || getBlockNumber() > endBlock || tokensForSale() == 0);\n    require(finalizedBlock == 0);\n\n    finalizedBlock = getBlockNumber();\n    finalizedTime = now;\n\n    // Generate 5% for the team\n    assert(msp.generateTokens(\n      destTokensTeam,\n      percent(5).mul(totalSupplyCap).div(percent(100))));\n\n    // Generate 5% for the referal bonuses\n    assert(msp.generateTokens(\n      destTokensReferals,\n      percent(5).mul(totalSupplyCap).div(percent(100))));\n\n    // Generate tokens for SIT exchanger\n    assert(msp.generateTokens(\n      destTokensSit,\n      sit.totalSupply()));\n\n    msp.changeController(mspController);\n    Finalized();\n  }\n\n  function percent(uint256 p) internal returns (uint256) {\n    return p.mul(10**16);\n  }\n\n\n  //////////\n  // Constant functions\n  //////////\n\n  /// @return Total tokens issued in weis.\n  function tokensIssued() public constant returns (uint256) {\n    return msp.totalSupply();\n  }\n\n  /// @return Total tokens availale for the sale in weis.\n  function tokensForSale() public constant returns(uint256) {\n    return totalSaleSupplyCap > totalSold ? totalSaleSupplyCap - totalSold : 0;\n  }\n\n\n  //////////\n  // Testing specific methods\n  //////////\n\n  /// @notice This function is overridden by the test Mocks.\n  function getBlockNumber() internal constant returns (uint256) {\n    return block.number;\n  }\n\n\n  //////////\n  // Safety Methods\n  //////////\n\n  /// @notice This method can be used by the controller to extract mistakenly\n  ///  sent tokens to this contract.\n  /// @param _token The address of the token contract that you want to recover\n  ///  set to 0 in case you want to extract ether.\n  function claimTokens(address _token) public onlyController {\n    if (msp.controller() == address(this)) {\n      msp.claimTokens(_token);\n    }\n    if (_token == 0x0) {\n      controller.transfer(this.balance);\n      return;\n    }\n\n    ERC20Token token = ERC20Token(_token);\n    uint256 balance = token.balanceOf(this);\n    token.transfer(controller, balance);\n    ClaimedTokens(_token, controller, balance);\n  }\n\n\n  /// @notice Pauses the contribution if there is any issue\n  function pauseContribution() onlyController {\n    paused = true;\n  }\n\n  /// @notice Resumes the contribution\n  function resumeContribution() onlyController {\n    paused = false;\n  }\n\n  event ClaimedTokens(address indexed _token, address indexed _controller, uint256 _amount);\n  event NewSale(address indexed _th, uint256 _amount, uint256 _tokens);\n  event Finalized();\n}\n",
  "sourcePath": "/home/gabriel/audits/mothership-audit/contracts/Contribution.sol",
  "compiler": {
    "name": "solc",
    "version": "0.4.18+commit.9cf6e910.Emscripten.clang"
  },
  "schemaVersion": "1.0.1",
  "updatedAt": "2018-01-15T03:05:41.888Z"
}