{
  "contractName": "Controlled",
  "abi": [
    {
      "constant": false,
      "inputs": [
        {
          "name": "_newController",
          "type": "address"
        }
      ],
      "name": "changeController",
      "outputs": [],
      "payable": false,
      "stateMutability": "nonpayable",
      "type": "function"
    },
    {
      "constant": true,
      "inputs": [],
      "name": "controller",
      "outputs": [
        {
          "name": "",
          "type": "address"
        }
      ],
      "payable": false,
      "stateMutability": "view",
      "type": "function"
    },
    {
      "inputs": [],
      "payable": false,
      "stateMutability": "nonpayable",
      "type": "constructor"
    }
  ],
  "bytecode": "0x6060604052341561000f57600080fd5b336000806101000a81548173ffffffffffffffffffffffffffffffffffffffff021916908373ffffffffffffffffffffffffffffffffffffffff1602179055506101ce8061005e6000396000f30060606040526004361061004c576000357c0100000000000000000000000000000000000000000000000000000000900463ffffffff1680633cebb82314610051578063f77c47911461008a575b600080fd5b341561005c57600080fd5b610088600480803573ffffffffffffffffffffffffffffffffffffffff169060200190919050506100df565b005b341561009557600080fd5b61009d61017d565b604051808273ffffffffffffffffffffffffffffffffffffffff1673ffffffffffffffffffffffffffffffffffffffff16815260200191505060405180910390f35b6000809054906101000a900473ffffffffffffffffffffffffffffffffffffffff1673ffffffffffffffffffffffffffffffffffffffff163373ffffffffffffffffffffffffffffffffffffffff1614151561013a57600080fd5b806000806101000a81548173ffffffffffffffffffffffffffffffffffffffff021916908373ffffffffffffffffffffffffffffffffffffffff16021790555050565b6000809054906101000a900473ffffffffffffffffffffffffffffffffffffffff16815600a165627a7a72305820a7e9dcc5e451862f5cecc8ec7fec8104659b060e645d438e18c14f57bfb564cb0029",
  "source": "pragma solidity ^0.4.11;\n\n/*\n  Copyright 2017, Jorge Izquierdo (Aragon Foundation)\n  Copyright 2017, Jordi Baylina (Giveth)\n\n  Based on MiniMeToken.sol from https://github.com/Giveth/minime\n  Original contract from https://github.com/aragon/aragon-network-token/blob/master/contracts/interface/Controlled.sol\n*/\n\ncontract Controlled {\n  /// @notice The address of the controller is the only address that can call\n  ///  a function with this modifier\n  modifier onlyController { if (msg.sender != controller) throw; _; }\n\n  address public controller;\n\n  function Controlled() { controller = msg.sender;}\n\n  /// @notice Changes the controller of the contract\n  /// @param _newController The new controller of the contract\n  function changeController(address _newController) onlyController {\n    controller = _newController;\n  }\n}\n",
  "sourcePath": "/home/gabriel/audits/mothership-audit/contracts/interface/Controlled.sol",
  "compiler": {
    "name": "solc",
    "version": "0.4.18+commit.9cf6e910.Emscripten.clang"
  },
  "schemaVersion": "1.0.1",
  "updatedAt": "2018-01-15T03:05:41.904Z"
}