{
  "contractName": "ContributionWallet",
  "abi": [
    {
      "constant": true,
      "inputs": [],
      "name": "endBlock",
      "outputs": [
        {
          "name": "",
          "type": "uint256"
        }
      ],
      "payable": false,
      "stateMutability": "view",
      "type": "function"
    },
    {
      "constant": false,
      "inputs": [],
      "name": "withdraw",
      "outputs": [],
      "payable": false,
      "stateMutability": "nonpayable",
      "type": "function"
    },
    {
      "constant": true,
      "inputs": [],
      "name": "multisig",
      "outputs": [
        {
          "name": "",
          "type": "address"
        }
      ],
      "payable": false,
      "stateMutability": "view",
      "type": "function"
    },
    {
      "constant": true,
      "inputs": [],
      "name": "contribution",
      "outputs": [
        {
          "name": "",
          "type": "address"
        }
      ],
      "payable": false,
      "stateMutability": "view",
      "type": "function"
    },
    {
      "inputs": [
        {
          "name": "_multisig",
          "type": "address"
        },
        {
          "name": "_endBlock",
          "type": "uint256"
        },
        {
          "name": "_contribution",
          "type": "address"
        }
      ],
      "payable": false,
      "stateMutability": "nonpayable",
      "type": "constructor"
    },
    {
      "payable": true,
      "stateMutability": "payable",
      "type": "fallback"
    }
  ],
  "bytecode": "0x6060604052341561000f57600080fd5b6040516060806104a48339810160405280805190602001909190805190602001909190805190602001909190505060008373ffffffffffffffffffffffffffffffffffffffff161415151561006357600080fd5b60008173ffffffffffffffffffffffffffffffffffffffff161415151561008957600080fd5b6000821415801561009d5750623d09008211155b15156100a857600080fd5b826000806101000a81548173ffffffffffffffffffffffffffffffffffffffff021916908373ffffffffffffffffffffffffffffffffffffffff1602179055508160018190555080600260006101000a81548173ffffffffffffffffffffffffffffffffffffffff021916908373ffffffffffffffffffffffffffffffffffffffff160217905550505050610362806101426000396000f300606060405260043610610062576000357c0100000000000000000000000000000000000000000000000000000000900463ffffffff168063083c6323146100645780633ccfd60b1461008d5780634783c35b146100a257806350520b1f146100f7575b005b341561006f57600080fd5b61007761014c565b6040518082815260200191505060405180910390f35b341561009857600080fd5b6100a0610152565b005b34156100ad57600080fd5b6100b56102eb565b604051808273ffffffffffffffffffffffffffffffffffffffff1673ffffffffffffffffffffffffffffffffffffffff16815260200191505060405180910390f35b341561010257600080fd5b61010a610310565b604051808273ffffffffffffffffffffffffffffffffffffffff1673ffffffffffffffffffffffffffffffffffffffff16815260200191505060405180910390f35b60015481565b6000809054906101000a900473ffffffffffffffffffffffffffffffffffffffff1673ffffffffffffffffffffffffffffffffffffffff163373ffffffffffffffffffffffffffffffffffffffff161415156101ad57600080fd5b60015443118061026657506000600260009054906101000a900473ffffffffffffffffffffffffffffffffffffffff1673ffffffffffffffffffffffffffffffffffffffff16634084c3ab6000604051602001526040518163ffffffff167c0100000000000000000000000000000000000000000000000000000000028152600401602060405180830381600087803b151561024857600080fd5b6102c65a03f1151561025957600080fd5b5050506040518051905014155b151561027157600080fd5b6000809054906101000a900473ffffffffffffffffffffffffffffffffffffffff1673ffffffffffffffffffffffffffffffffffffffff166108fc3073ffffffffffffffffffffffffffffffffffffffff16319081150290604051600060405180830381858888f1935050505015156102e957600080fd5b565b6000809054906101000a900473ffffffffffffffffffffffffffffffffffffffff1681565b600260009054906101000a900473ffffffffffffffffffffffffffffffffffffffff16815600a165627a7a723058209770410cdd435d8f637453f3466f6582f9a7e72c6a76ac291b4fdcce6b21ad590029",
  "source": "pragma solidity ^0.4.11;\n\n/*\n    Copyright 2017, Anton Egorov (Mothership Foundation)\n    Copyright 2017, Jordi Baylina (Giveth)\n\n    This program is free software: you can redistribute it and/or modify\n    it under the terms of the GNU General Public License as published by\n    the Free Software Foundation, either version 3 of the License, or\n    (at your option) any later version.\n\n    This program is distributed in the hope that it will be useful,\n    but WITHOUT ANY WARRANTY; without even the implied warranty of\n    MERCHANTABILITY or FITNESS FOR A PARTICULAR PURPOSE.  See the\n    GNU General Public License for more details.\n\n    You should have received a copy of the GNU General Public License\n    along with this program.  If not, see <http://www.gnu.org/licenses/>.\n */\n\n/// @title ContributionWallet Contract\n/// @author Jordi Baylina\n/// @dev This contract will be hold the Ether during the contribution period.\n///  The idea of this contract is to avoid recycling Ether during the contribution\n///  period. So all the ETH collected will be locked here until the contribution\n///  period ends\n\n// @dev Contract to hold sale raised funds during the sale period.\n// Prevents attack in which the Aragon Multisig sends raised ether\n// to the sale contract to mint tokens to itself, and getting the\n// funds back immediately.\n\n\nimport \"./Contribution.sol\";\n\n\ncontract ContributionWallet {\n\n    // Public variables\n    address public multisig;\n    uint256 public endBlock;\n    Contribution public contribution;\n\n    // @dev Constructor initializes public variables\n    // @param _multisig The address of the multisig that will receive the funds\n    // @param _endBlock Block after which the multisig can request the funds\n    // @param _contribution Address of the Contribution contract\n    function ContributionWallet(address _multisig, uint256 _endBlock, address _contribution) {\n        require(_multisig != 0x0);\n        require(_contribution != 0x0);\n        require(_endBlock != 0 && _endBlock <= 4000000);\n        multisig = _multisig;\n        endBlock = _endBlock;\n        contribution = Contribution(_contribution);\n    }\n\n    // @dev Receive all sent funds without any further logic\n    function () public payable {}\n\n    // @dev Withdraw function sends all the funds to the wallet if conditions are correct\n    function withdraw() public {\n        require(msg.sender == multisig);              // Only the multisig can request it\n        // TODO check for minimal goal instead of end of contribution\n        require(block.number > endBlock ||            // Allow after end block\n                contribution.finalizedBlock() != 0);  // Allow when sale is finalized\n        multisig.transfer(this.balance);\n    }\n\n}\n",
  "sourcePath": "/home/gabriel/audits/mothership-audit/contracts/ContributionWallet.sol",
  "compiler": {
    "name": "solc",
    "version": "0.4.18+commit.9cf6e910.Emscripten.clang"
  },
  "schemaVersion": "1.0.1",
  "updatedAt": "2018-01-15T03:05:41.891Z"
}