{
  "contractName": "MSPPlaceholderMock",
  "abi": [
    {
      "constant": false,
      "inputs": [
        {
          "name": "_newController",
          "type": "address"
        }
      ],
      "name": "changeController",
      "outputs": [],
      "payable": false,
      "stateMutability": "nonpayable",
      "type": "function"
    },
    {
      "constant": false,
      "inputs": [
        {
          "name": "_from",
          "type": "address"
        },
        {
          "name": "",
          "type": "address"
        },
        {
          "name": "",
          "type": "uint256"
        }
      ],
      "name": "onTransfer",
      "outputs": [
        {
          "name": "",
          "type": "bool"
        }
      ],
      "payable": false,
      "stateMutability": "nonpayable",
      "type": "function"
    },
    {
      "constant": true,
      "inputs": [],
      "name": "contribution",
      "outputs": [
        {
          "name": "",
          "type": "address"
        }
      ],
      "payable": false,
      "stateMutability": "view",
      "type": "function"
    },
    {
      "constant": true,
      "inputs": [],
      "name": "sitExchanger",
      "outputs": [
        {
          "name": "",
          "type": "address"
        }
      ],
      "payable": false,
      "stateMutability": "view",
      "type": "function"
    },
    {
      "constant": true,
      "inputs": [],
      "name": "msp",
      "outputs": [
        {
          "name": "",
          "type": "address"
        }
      ],
      "payable": false,
      "stateMutability": "view",
      "type": "function"
    },
    {
      "constant": false,
      "inputs": [
        {
          "name": "_t",
          "type": "uint256"
        }
      ],
      "name": "setMockedTime",
      "outputs": [],
      "payable": false,
      "stateMutability": "nonpayable",
      "type": "function"
    },
    {
      "constant": true,
      "inputs": [],
      "name": "activationTime",
      "outputs": [
        {
          "name": "",
          "type": "uint256"
        }
      ],
      "payable": false,
      "stateMutability": "view",
      "type": "function"
    },
    {
      "constant": false,
      "inputs": [
        {
          "name": "_from",
          "type": "address"
        },
        {
          "name": "",
          "type": "address"
        },
        {
          "name": "",
          "type": "uint256"
        }
      ],
      "name": "onApprove",
      "outputs": [
        {
          "name": "",
          "type": "bool"
        }
      ],
      "payable": false,
      "stateMutability": "nonpayable",
      "type": "function"
    },
    {
      "constant": false,
      "inputs": [
        {
          "name": "_token",
          "type": "address"
        }
      ],
      "name": "claimTokens",
      "outputs": [],
      "payable": false,
      "stateMutability": "nonpayable",
      "type": "function"
    },
    {
      "constant": false,
      "inputs": [
        {
          "name": "",
          "type": "address"
        }
      ],
      "name": "proxyPayment",
      "outputs": [
        {
          "name": "",
          "type": "bool"
        }
      ],
      "payable": true,
      "stateMutability": "payable",
      "type": "function"
    },
    {
      "constant": true,
      "inputs": [],
      "name": "controller",
      "outputs": [
        {
          "name": "",
          "type": "address"
        }
      ],
      "payable": false,
      "stateMutability": "view",
      "type": "function"
    },
    {
      "inputs": [
        {
          "name": "_controller",
          "type": "address"
        },
        {
          "name": "_msp",
          "type": "address"
        },
        {
          "name": "_contribution",
          "type": "address"
        },
        {
          "name": "_sitExchanger",
          "type": "address"
        }
      ],
      "payable": false,
      "stateMutability": "nonpayable",
      "type": "constructor"
    },
    {
      "anonymous": false,
      "inputs": [
        {
          "indexed": true,
          "name": "_token",
          "type": "address"
        },
        {
          "indexed": true,
          "name": "_controller",
          "type": "address"
        },
        {
          "indexed": false,
          "name": "_amount",
          "type": "uint256"
        }
      ],
      "name": "ClaimedTokens",
      "type": "event"
    },
    {
      "anonymous": false,
      "inputs": [
        {
          "indexed": true,
          "name": "_newController",
          "type": "address"
        }
      ],
      "name": "ControllerChanged",
      "type": "event"
    }
  ],
  "bytecode": "0x6060604052341561000f57600080fd5b604051608080610e7f8339810160405280805190602001909190805190602001909190805190602001909190805190602001909190505083838383336000806101000a81548173ffffffffffffffffffffffffffffffffffffffff021916908373ffffffffffffffffffffffffffffffffffffffff160217905550836000806101000a81548173ffffffffffffffffffffffffffffffffffffffff021916908373ffffffffffffffffffffffffffffffffffffffff16021790555082600160006101000a81548173ffffffffffffffffffffffffffffffffffffffff021916908373ffffffffffffffffffffffffffffffffffffffff16021790555081600260006101000a81548173ffffffffffffffffffffffffffffffffffffffff021916908373ffffffffffffffffffffffffffffffffffffffff16021790555080600460006101000a81548173ffffffffffffffffffffffffffffffffffffffff021916908373ffffffffffffffffffffffffffffffffffffffff160217905550505050504260058190555050505050610cd4806101ab6000396000f3006060604052600436106100af576000357c0100000000000000000000000000000000000000000000000000000000900463ffffffff1680633cebb823146100b45780634a393149146100ed57806350520b1f146101665780637e81701a146101bb578063a826748214610210578063ab8be23114610265578063da4493f614610288578063da682aeb146102b1578063df8de3e71461032a578063f48c305414610363578063f77c4791146103a9575b600080fd5b34156100bf57600080fd5b6100eb600480803573ffffffffffffffffffffffffffffffffffffffff169060200190919050506103fe565b005b34156100f857600080fd5b61014c600480803573ffffffffffffffffffffffffffffffffffffffff1690602001909190803573ffffffffffffffffffffffffffffffffffffffff1690602001909190803590602001909190505061056f565b604051808215151515815260200191505060405180910390f35b341561017157600080fd5b610179610583565b604051808273ffffffffffffffffffffffffffffffffffffffff1673ffffffffffffffffffffffffffffffffffffffff16815260200191505060405180910390f35b34156101c657600080fd5b6101ce6105a9565b604051808273ffffffffffffffffffffffffffffffffffffffff1673ffffffffffffffffffffffffffffffffffffffff16815260200191505060405180910390f35b341561021b57600080fd5b6102236105cf565b604051808273ffffffffffffffffffffffffffffffffffffffff1673ffffffffffffffffffffffffffffffffffffffff16815260200191505060405180910390f35b341561027057600080fd5b61028660048080359060200190919050506105f5565b005b341561029357600080fd5b61029b6105ff565b6040518082815260200191505060405180910390f35b34156102bc57600080fd5b610310600480803573ffffffffffffffffffffffffffffffffffffffff1690602001909190803573ffffffffffffffffffffffffffffffffffffffff16906020019091908035906020019091905050610605565b604051808215151515815260200191505060405180910390f35b341561033557600080fd5b610361600480803573ffffffffffffffffffffffffffffffffffffffff16906020019091905050610619565b005b61038f600480803573ffffffffffffffffffffffffffffffffffffffff16906020019091905050610af7565b604051808215151515815260200191505060405180910390f35b34156103b457600080fd5b6103bc610b01565b604051808273ffffffffffffffffffffffffffffffffffffffff1673ffffffffffffffffffffffffffffffffffffffff16815260200191505060405180910390f35b6000809054906101000a900473ffffffffffffffffffffffffffffffffffffffff1673ffffffffffffffffffffffffffffffffffffffff163373ffffffffffffffffffffffffffffffffffffffff1614151561045957600080fd5b600160009054906101000a900473ffffffffffffffffffffffffffffffffffffffff1673ffffffffffffffffffffffffffffffffffffffff16633cebb823826040518263ffffffff167c0100000000000000000000000000000000000000000000000000000000028152600401808273ffffffffffffffffffffffffffffffffffffffff1673ffffffffffffffffffffffffffffffffffffffff168152602001915050600060405180830381600087803b151561051557600080fd5b6102c65a03f1151561052657600080fd5b5050508073ffffffffffffffffffffffffffffffffffffffff167f027c3e080ed9215f564a9455a666f7e459b3edc0bb6e02a1bf842fde4d0ccfc160405160405180910390a250565b600061057a84610b26565b90509392505050565b600260009054906101000a900473ffffffffffffffffffffffffffffffffffffffff1681565b600460009054906101000a900473ffffffffffffffffffffffffffffffffffffffff1681565b600160009054906101000a900473ffffffffffffffffffffffffffffffffffffffff1681565b8060058190555050565b60035481565b600061061084610b26565b90509392505050565b6000806000809054906101000a900473ffffffffffffffffffffffffffffffffffffffff1673ffffffffffffffffffffffffffffffffffffffff163373ffffffffffffffffffffffffffffffffffffffff1614151561067757600080fd5b3073ffffffffffffffffffffffffffffffffffffffff16600160009054906101000a900473ffffffffffffffffffffffffffffffffffffffff1673ffffffffffffffffffffffffffffffffffffffff1663f77c47916000604051602001526040518163ffffffff167c0100000000000000000000000000000000000000000000000000000000028152600401602060405180830381600087803b151561071c57600080fd5b6102c65a03f1151561072d57600080fd5b5050506040518051905073ffffffffffffffffffffffffffffffffffffffff16141561082457600160009054906101000a900473ffffffffffffffffffffffffffffffffffffffff1673ffffffffffffffffffffffffffffffffffffffff1663df8de3e7846040518263ffffffff167c0100000000000000000000000000000000000000000000000000000000028152600401808273ffffffffffffffffffffffffffffffffffffffff1673ffffffffffffffffffffffffffffffffffffffff168152602001915050600060405180830381600087803b151561080f57600080fd5b6102c65a03f1151561082057600080fd5b5050505b60008373ffffffffffffffffffffffffffffffffffffffff1614156108c0576000809054906101000a900473ffffffffffffffffffffffffffffffffffffffff1673ffffffffffffffffffffffffffffffffffffffff166108fc3073ffffffffffffffffffffffffffffffffffffffff16319081150290604051600060405180830381858888f1935050505015156108bb57600080fd5b610af2565b8291508173ffffffffffffffffffffffffffffffffffffffff166370a08231306000604051602001526040518263ffffffff167c0100000000000000000000000000000000000000000000000000000000028152600401808273ffffffffffffffffffffffffffffffffffffffff1673ffffffffffffffffffffffffffffffffffffffff168152602001915050602060405180830381600087803b151561096657600080fd5b6102c65a03f1151561097757600080fd5b5050506040518051905090508173ffffffffffffffffffffffffffffffffffffffff1663a9059cbb6000809054906101000a900473ffffffffffffffffffffffffffffffffffffffff16836000604051602001526040518363ffffffff167c0100000000000000000000000000000000000000000000000000000000028152600401808373ffffffffffffffffffffffffffffffffffffffff1673ffffffffffffffffffffffffffffffffffffffff16815260200182815260200192505050602060405180830381600087803b1515610a4f57600080fd5b6102c65a03f11515610a6057600080fd5b50505060405180519050506000809054906101000a900473ffffffffffffffffffffffffffffffffffffffff1673ffffffffffffffffffffffffffffffffffffffff168373ffffffffffffffffffffffffffffffffffffffff167ff931edb47c50b4b4104c187b5814a9aef5f709e17e2ecf9617e860cacade929c836040518082815260200191505060405180910390a35b505050565b6000809050919050565b6000809054906101000a900473ffffffffffffffffffffffffffffffffffffffff1681565b60008060006003541415610c1357600260009054906101000a900473ffffffffffffffffffffffffffffffffffffffff1673ffffffffffffffffffffffffffffffffffffffff1663fe67a1896000604051602001526040518163ffffffff167c0100000000000000000000000000000000000000000000000000000000028152600401602060405180830381600087803b1515610bc257600080fd5b6102c65a03f11515610bd357600080fd5b5050506040518051905090506000811115610c0957610bfe6201518082610c8090919063ffffffff16565b600381905550610c12565b60009150610c7a565b5b600354610c1e610c9e565b1180610c775750600460009054906101000a900473ffffffffffffffffffffffffffffffffffffffff1673ffffffffffffffffffffffffffffffffffffffff168373ffffffffffffffffffffffffffffffffffffffff16145b91505b50919050565b6000808284019050838110151515610c9457fe5b8091505092915050565b60006005549050905600a165627a7a72305820e96fe166ef36ebec5a14d9d17c3e92563c23358b272fe517c912b6e5d994e1170029",
  "source": "pragma solidity ^0.4.11;\n\nimport '../MSPPlaceholder.sol';\n\n// @dev MSPPlaceHolderMock mocks current block number\n\ncontract MSPPlaceholderMock is MSPPlaceHolder {\n\n  uint mock_time;\n\n  function MSPPlaceholderMock(address _controller, address _msp, address _contribution, address _sitExchanger)\n    MSPPlaceHolder(_controller, _msp, _contribution, _sitExchanger) {\n    mock_time = now;\n  }\n\n  function getTime() internal returns (uint) {\n    return mock_time;\n  }\n\n  function setMockedTime(uint _t) public {\n    mock_time = _t;\n  }\n}\n",
  "sourcePath": "/home/gabriel/audits/mothership-audit/contracts/test/MSPPlaceholderMock.sol",
  "compiler": {
    "name": "solc",
    "version": "0.4.18+commit.9cf6e910.Emscripten.clang"
  },
  "schemaVersion": "1.0.1",
  "updatedAt": "2018-01-15T03:05:41.905Z"
}