{
  "contractName": "MSPPlaceHolder",
  "abi": [
    {
      "constant": false,
      "inputs": [
        {
          "name": "_newController",
          "type": "address"
        }
      ],
      "name": "changeController",
      "outputs": [],
      "payable": false,
      "stateMutability": "nonpayable",
      "type": "function"
    },
    {
      "constant": false,
      "inputs": [
        {
          "name": "_from",
          "type": "address"
        },
        {
          "name": "",
          "type": "address"
        },
        {
          "name": "",
          "type": "uint256"
        }
      ],
      "name": "onTransfer",
      "outputs": [
        {
          "name": "",
          "type": "bool"
        }
      ],
      "payable": false,
      "stateMutability": "nonpayable",
      "type": "function"
    },
    {
      "constant": true,
      "inputs": [],
      "name": "contribution",
      "outputs": [
        {
          "name": "",
          "type": "address"
        }
      ],
      "payable": false,
      "stateMutability": "view",
      "type": "function"
    },
    {
      "constant": true,
      "inputs": [],
      "name": "sitExchanger",
      "outputs": [
        {
          "name": "",
          "type": "address"
        }
      ],
      "payable": false,
      "stateMutability": "view",
      "type": "function"
    },
    {
      "constant": true,
      "inputs": [],
      "name": "msp",
      "outputs": [
        {
          "name": "",
          "type": "address"
        }
      ],
      "payable": false,
      "stateMutability": "view",
      "type": "function"
    },
    {
      "constant": true,
      "inputs": [],
      "name": "activationTime",
      "outputs": [
        {
          "name": "",
          "type": "uint256"
        }
      ],
      "payable": false,
      "stateMutability": "view",
      "type": "function"
    },
    {
      "constant": false,
      "inputs": [
        {
          "name": "_from",
          "type": "address"
        },
        {
          "name": "",
          "type": "address"
        },
        {
          "name": "",
          "type": "uint256"
        }
      ],
      "name": "onApprove",
      "outputs": [
        {
          "name": "",
          "type": "bool"
        }
      ],
      "payable": false,
      "stateMutability": "nonpayable",
      "type": "function"
    },
    {
      "constant": false,
      "inputs": [
        {
          "name": "_token",
          "type": "address"
        }
      ],
      "name": "claimTokens",
      "outputs": [],
      "payable": false,
      "stateMutability": "nonpayable",
      "type": "function"
    },
    {
      "constant": false,
      "inputs": [
        {
          "name": "",
          "type": "address"
        }
      ],
      "name": "proxyPayment",
      "outputs": [
        {
          "name": "",
          "type": "bool"
        }
      ],
      "payable": true,
      "stateMutability": "payable",
      "type": "function"
    },
    {
      "constant": true,
      "inputs": [],
      "name": "controller",
      "outputs": [
        {
          "name": "",
          "type": "address"
        }
      ],
      "payable": false,
      "stateMutability": "view",
      "type": "function"
    },
    {
      "inputs": [
        {
          "name": "_controller",
          "type": "address"
        },
        {
          "name": "_msp",
          "type": "address"
        },
        {
          "name": "_contribution",
          "type": "address"
        },
        {
          "name": "_sitExchanger",
          "type": "address"
        }
      ],
      "payable": false,
      "stateMutability": "nonpayable",
      "type": "constructor"
    },
    {
      "anonymous": false,
      "inputs": [
        {
          "indexed": true,
          "name": "_token",
          "type": "address"
        },
        {
          "indexed": true,
          "name": "_controller",
          "type": "address"
        },
        {
          "indexed": false,
          "name": "_amount",
          "type": "uint256"
        }
      ],
      "name": "ClaimedTokens",
      "type": "event"
    },
    {
      "anonymous": false,
      "inputs": [
        {
          "indexed": true,
          "name": "_newController",
          "type": "address"
        }
      ],
      "name": "ControllerChanged",
      "type": "event"
    }
  ],
  "bytecode": "0x6060604052341561000f57600080fd5b604051608080610e3683398101604052808051906020019091908051906020019091908051906020019091908051906020019091905050336000806101000a81548173ffffffffffffffffffffffffffffffffffffffff021916908373ffffffffffffffffffffffffffffffffffffffff160217905550836000806101000a81548173ffffffffffffffffffffffffffffffffffffffff021916908373ffffffffffffffffffffffffffffffffffffffff16021790555082600160006101000a81548173ffffffffffffffffffffffffffffffffffffffff021916908373ffffffffffffffffffffffffffffffffffffffff16021790555081600260006101000a81548173ffffffffffffffffffffffffffffffffffffffff021916908373ffffffffffffffffffffffffffffffffffffffff16021790555080600460006101000a81548173ffffffffffffffffffffffffffffffffffffffff021916908373ffffffffffffffffffffffffffffffffffffffff16021790555050505050610c9a8061019c6000396000f3006060604052600436106100a4576000357c0100000000000000000000000000000000000000000000000000000000900463ffffffff1680633cebb823146100a95780634a393149146100e257806350520b1f1461015b5780637e81701a146101b0578063a826748214610205578063da4493f61461025a578063da682aeb14610283578063df8de3e7146102fc578063f48c305414610335578063f77c47911461037b575b600080fd5b34156100b457600080fd5b6100e0600480803573ffffffffffffffffffffffffffffffffffffffff169060200190919050506103d0565b005b34156100ed57600080fd5b610141600480803573ffffffffffffffffffffffffffffffffffffffff1690602001909190803573ffffffffffffffffffffffffffffffffffffffff16906020019091908035906020019091905050610541565b604051808215151515815260200191505060405180910390f35b341561016657600080fd5b61016e610555565b604051808273ffffffffffffffffffffffffffffffffffffffff1673ffffffffffffffffffffffffffffffffffffffff16815260200191505060405180910390f35b34156101bb57600080fd5b6101c361057b565b604051808273ffffffffffffffffffffffffffffffffffffffff1673ffffffffffffffffffffffffffffffffffffffff16815260200191505060405180910390f35b341561021057600080fd5b6102186105a1565b604051808273ffffffffffffffffffffffffffffffffffffffff1673ffffffffffffffffffffffffffffffffffffffff16815260200191505060405180910390f35b341561026557600080fd5b61026d6105c7565b6040518082815260200191505060405180910390f35b341561028e57600080fd5b6102e2600480803573ffffffffffffffffffffffffffffffffffffffff1690602001909190803573ffffffffffffffffffffffffffffffffffffffff169060200190919080359060200190919050506105cd565b604051808215151515815260200191505060405180910390f35b341561030757600080fd5b610333600480803573ffffffffffffffffffffffffffffffffffffffff169060200190919050506105e1565b005b610361600480803573ffffffffffffffffffffffffffffffffffffffff16906020019091905050610abf565b604051808215151515815260200191505060405180910390f35b341561038657600080fd5b61038e610ac9565b604051808273ffffffffffffffffffffffffffffffffffffffff1673ffffffffffffffffffffffffffffffffffffffff16815260200191505060405180910390f35b6000809054906101000a900473ffffffffffffffffffffffffffffffffffffffff1673ffffffffffffffffffffffffffffffffffffffff163373ffffffffffffffffffffffffffffffffffffffff1614151561042b57600080fd5b600160009054906101000a900473ffffffffffffffffffffffffffffffffffffffff1673ffffffffffffffffffffffffffffffffffffffff16633cebb823826040518263ffffffff167c0100000000000000000000000000000000000000000000000000000000028152600401808273ffffffffffffffffffffffffffffffffffffffff1673ffffffffffffffffffffffffffffffffffffffff168152602001915050600060405180830381600087803b15156104e757600080fd5b6102c65a03f115156104f857600080fd5b5050508073ffffffffffffffffffffffffffffffffffffffff167f027c3e080ed9215f564a9455a666f7e459b3edc0bb6e02a1bf842fde4d0ccfc160405160405180910390a250565b600061054c84610aee565b90509392505050565b600260009054906101000a900473ffffffffffffffffffffffffffffffffffffffff1681565b600460009054906101000a900473ffffffffffffffffffffffffffffffffffffffff1681565b600160009054906101000a900473ffffffffffffffffffffffffffffffffffffffff1681565b60035481565b60006105d884610aee565b90509392505050565b6000806000809054906101000a900473ffffffffffffffffffffffffffffffffffffffff1673ffffffffffffffffffffffffffffffffffffffff163373ffffffffffffffffffffffffffffffffffffffff1614151561063f57600080fd5b3073ffffffffffffffffffffffffffffffffffffffff16600160009054906101000a900473ffffffffffffffffffffffffffffffffffffffff1673ffffffffffffffffffffffffffffffffffffffff1663f77c47916000604051602001526040518163ffffffff167c0100000000000000000000000000000000000000000000000000000000028152600401602060405180830381600087803b15156106e457600080fd5b6102c65a03f115156106f557600080fd5b5050506040518051905073ffffffffffffffffffffffffffffffffffffffff1614156107ec57600160009054906101000a900473ffffffffffffffffffffffffffffffffffffffff1673ffffffffffffffffffffffffffffffffffffffff1663df8de3e7846040518263ffffffff167c0100000000000000000000000000000000000000000000000000000000028152600401808273ffffffffffffffffffffffffffffffffffffffff1673ffffffffffffffffffffffffffffffffffffffff168152602001915050600060405180830381600087803b15156107d757600080fd5b6102c65a03f115156107e857600080fd5b5050505b60008373ffffffffffffffffffffffffffffffffffffffff161415610888576000809054906101000a900473ffffffffffffffffffffffffffffffffffffffff1673ffffffffffffffffffffffffffffffffffffffff166108fc3073ffffffffffffffffffffffffffffffffffffffff16319081150290604051600060405180830381858888f19350505050151561088357600080fd5b610aba565b8291508173ffffffffffffffffffffffffffffffffffffffff166370a08231306000604051602001526040518263ffffffff167c0100000000000000000000000000000000000000000000000000000000028152600401808273ffffffffffffffffffffffffffffffffffffffff1673ffffffffffffffffffffffffffffffffffffffff168152602001915050602060405180830381600087803b151561092e57600080fd5b6102c65a03f1151561093f57600080fd5b5050506040518051905090508173ffffffffffffffffffffffffffffffffffffffff1663a9059cbb6000809054906101000a900473ffffffffffffffffffffffffffffffffffffffff16836000604051602001526040518363ffffffff167c0100000000000000000000000000000000000000000000000000000000028152600401808373ffffffffffffffffffffffffffffffffffffffff1673ffffffffffffffffffffffffffffffffffffffff16815260200182815260200192505050602060405180830381600087803b1515610a1757600080fd5b6102c65a03f11515610a2857600080fd5b50505060405180519050506000809054906101000a900473ffffffffffffffffffffffffffffffffffffffff1673ffffffffffffffffffffffffffffffffffffffff168373ffffffffffffffffffffffffffffffffffffffff167ff931edb47c50b4b4104c187b5814a9aef5f709e17e2ecf9617e860cacade929c836040518082815260200191505060405180910390a35b505050565b6000809050919050565b6000809054906101000a900473ffffffffffffffffffffffffffffffffffffffff1681565b60008060006003541415610bdb57600260009054906101000a900473ffffffffffffffffffffffffffffffffffffffff1673ffffffffffffffffffffffffffffffffffffffff1663fe67a1896000604051602001526040518163ffffffff167c0100000000000000000000000000000000000000000000000000000000028152600401602060405180830381600087803b1515610b8a57600080fd5b6102c65a03f11515610b9b57600080fd5b5050506040518051905090506000811115610bd157610bc66201518082610c4890919063ffffffff16565b600381905550610bda565b60009150610c42565b5b600354610be6610c66565b1180610c3f5750600460009054906101000a900473ffffffffffffffffffffffffffffffffffffffff1673ffffffffffffffffffffffffffffffffffffffff168373ffffffffffffffffffffffffffffffffffffffff16145b91505b50919050565b6000808284019050838110151515610c5c57fe5b8091505092915050565b6000429050905600a165627a7a72305820b5cf15b9528e97f31371ee0d14f81a0e164bfdb33411ce33a17a0ff66136da2f0029",
  "source": "pragma solidity ^0.4.11;\n\n/*\n  Copyright 2017, Anton Egorov (Mothership Foundation)\n  Copyright 2017, Jordi Baylina (Giveth)\n\n  This program is free software: you can redistribute it and/or modify\n  it under the terms of the GNU General Public License as published by\n  the Free Software Foundation, either version 3 of the License, or\n  (at your option) any later version.\n\n  This program is distributed in the hope that it will be useful,\n  but WITHOUT ANY WARRANTY; without even the implied warranty of\n  MERCHANTABILITY or FITNESS FOR A PARTICULAR PURPOSE.  See the\n  GNU General Public License for more details.\n\n  You should have received a copy of the GNU General Public License\n  along with this program.  If not, see <http://www.gnu.org/licenses/>.\n*/\n\n/// @title MSPPlaceholder Contract\n/// @author Jordi Baylina\n/// @dev The MSPPlaceholder contract will take control over the MSP after the contribution\n///  is finalized and before the Mothership Network is deployed.\n///  The contract allows for MSP transfers and transferFrom and implements the\n///  logic for transferring control of the token to the network when the offering\n///  asks it to do so.\n\n\nimport \"./misc/SafeMath.sol\";\nimport \"./interface/Controlled.sol\";\nimport \"./interface/TokenController.sol\";\nimport \"./interface/ERC20Token.sol\";\nimport \"./interface/MiniMeTokenI.sol\";\nimport \"./Contribution.sol\";\n\n\ncontract MSPPlaceHolder is Controlled, TokenController {\n  using SafeMath for uint256;\n\n  MiniMeTokenI public msp;\n  Contribution public contribution;\n\n  uint256 public activationTime;\n  address public sitExchanger;\n\n  /// @notice Constructor\n  /// @param _controller Trusted controller for this contract.\n  /// @param _msp MSP token contract address\n  /// @param _contribution Contribution contract address\n  /// @param _sitExchanger SIT-MSP Exchange address. (During the first day\n  ///  only this exchanger will be able to move tokens)\n  function MSPPlaceHolder(address _controller, address _msp, address _contribution, address _sitExchanger) {\n    controller = _controller;\n    msp = MiniMeTokenI(_msp);\n    contribution = Contribution(_contribution);\n    sitExchanger = _sitExchanger;\n  }\n\n  /// @notice The controller of this contract can change the controller of the MSP token\n  ///  Please, be sure that the controller is a trusted agent or 0x0 address.\n  /// @param _newController The address of the new controller\n\n  function changeController(address _newController) public onlyController {\n    msp.changeController(_newController);\n    ControllerChanged(_newController);\n  }\n\n\n  //////////\n  // MiniMe Controller Interface functions\n  //////////\n\n  // In between the offering and the network. Default settings for allowing token transfers.\n  function proxyPayment(address) public payable returns (bool) {\n    return false;\n  }\n\n  function onTransfer(address _from, address, uint256) public returns (bool) {\n    return transferable(_from);\n  }\n\n  function onApprove(address _from, address, uint256) public returns (bool) {\n    return transferable(_from);\n  }\n\n  function transferable(address _from) internal returns (bool) {\n    // Allow the exchanger to work from the beginning\n    if (activationTime == 0) {\n      uint256 f = contribution.finalizedTime();\n      if (f > 0) {\n        activationTime = f.add(24 hours);\n      } else {\n        return false;\n      }\n    }\n    return (getTime() > activationTime) || (_from == sitExchanger);\n  }\n\n\n  //////////\n  // Testing specific methods\n  //////////\n\n  /// @notice This function is overridden by the test Mocks.\n  function getTime() internal returns (uint256) {\n    return now;\n  }\n\n\n  //////////\n  // Safety Methods\n  //////////\n\n  /// @notice This method can be used by the controller to extract mistakenly\n  ///  sent tokens to this contract.\n  /// @param _token The address of the token contract that you want to recover\n  ///  set to 0 in case you want to extract ether.\n  function claimTokens(address _token) public onlyController {\n    if (msp.controller() == address(this)) {\n      msp.claimTokens(_token);\n    }\n    if (_token == 0x0) {\n      controller.transfer(this.balance);\n      return;\n    }\n\n    ERC20Token token = ERC20Token(_token);\n    uint256 balance = token.balanceOf(this);\n    token.transfer(controller, balance);\n    ClaimedTokens(_token, controller, balance);\n  }\n\n  event ClaimedTokens(address indexed _token, address indexed _controller, uint256 _amount);\n  event ControllerChanged(address indexed _newController);\n}\n",
  "sourcePath": "/home/gabriel/audits/mothership-audit/contracts/MSPPlaceholder.sol",
  "compiler": {
    "name": "solc",
    "version": "0.4.18+commit.9cf6e910.Emscripten.clang"
  },
  "schemaVersion": "1.0.1",
  "updatedAt": "2018-01-15T03:05:41.892Z"
}