{
  "contractName": "ReferalsTokenHolder",
  "abi": [
    {
      "constant": false,
      "inputs": [
        {
          "name": "_addresses",
          "type": "address[]"
        },
        {
          "name": "_amounts",
          "type": "uint256[]"
        }
      ],
      "name": "spread",
      "outputs": [],
      "payable": false,
      "stateMutability": "nonpayable",
      "type": "function"
    },
    {
      "constant": false,
      "inputs": [
        {
          "name": "_newController",
          "type": "address"
        }
      ],
      "name": "changeController",
      "outputs": [],
      "payable": false,
      "stateMutability": "nonpayable",
      "type": "function"
    },
    {
      "constant": true,
      "inputs": [],
      "name": "msp",
      "outputs": [
        {
          "name": "",
          "type": "address"
        }
      ],
      "payable": false,
      "stateMutability": "view",
      "type": "function"
    },
    {
      "constant": false,
      "inputs": [
        {
          "name": "_token",
          "type": "address"
        }
      ],
      "name": "claimTokens",
      "outputs": [],
      "payable": false,
      "stateMutability": "nonpayable",
      "type": "function"
    },
    {
      "constant": true,
      "inputs": [],
      "name": "controller",
      "outputs": [
        {
          "name": "",
          "type": "address"
        }
      ],
      "payable": false,
      "stateMutability": "view",
      "type": "function"
    },
    {
      "inputs": [
        {
          "name": "_msp",
          "type": "address"
        }
      ],
      "payable": false,
      "stateMutability": "nonpayable",
      "type": "constructor"
    },
    {
      "anonymous": false,
      "inputs": [
        {
          "indexed": true,
          "name": "_token",
          "type": "address"
        },
        {
          "indexed": true,
          "name": "_controller",
          "type": "address"
        },
        {
          "indexed": false,
          "name": "_amount",
          "type": "uint256"
        }
      ],
      "name": "ClaimedTokens",
      "type": "event"
    }
  ],
  "bytecode": "0x6060604052341561000f57600080fd5b604051602080610ac683398101604052808051906020019091905050336000806101000a81548173ffffffffffffffffffffffffffffffffffffffff021916908373ffffffffffffffffffffffffffffffffffffffff16021790555080600160006101000a81548173ffffffffffffffffffffffffffffffffffffffff021916908373ffffffffffffffffffffffffffffffffffffffff16021790555050610a0a806100bc6000396000f30060606040526004361061006d576000357c0100000000000000000000000000000000000000000000000000000000900463ffffffff1680632b071e47146100725780633cebb8231461010c578063a826748214610145578063df8de3e71461019a578063f77c4791146101d3575b600080fd5b341561007d57600080fd5b61010a60048080359060200190820180359060200190808060200260200160405190810160405280939291908181526020018383602002808284378201915050505050509190803590602001908201803590602001908080602002602001604051908101604052809392919081815260200183836020028082843782019150505050505091905050610228565b005b341561011757600080fd5b610143600480803573ffffffffffffffffffffffffffffffffffffffff169060200190919050506105c4565b005b341561015057600080fd5b610158610662565b604051808273ffffffffffffffffffffffffffffffffffffffff1673ffffffffffffffffffffffffffffffffffffffff16815260200191505060405180910390f35b34156101a557600080fd5b6101d1600480803573ffffffffffffffffffffffffffffffffffffffff16906020019091905050610688565b005b34156101de57600080fd5b6101e66109b9565b604051808273ffffffffffffffffffffffffffffffffffffffff1673ffffffffffffffffffffffffffffffffffffffff16815260200191505060405180910390f35b60008060008060009054906101000a900473ffffffffffffffffffffffffffffffffffffffff1673ffffffffffffffffffffffffffffffffffffffff163373ffffffffffffffffffffffffffffffffffffffff1614151561028857600080fd5b600160009054906101000a900473ffffffffffffffffffffffffffffffffffffffff1673ffffffffffffffffffffffffffffffffffffffff1663f77c47916000604051602001526040518163ffffffff167c0100000000000000000000000000000000000000000000000000000000028152600401602060405180830381600087803b151561031657600080fd5b6102c65a03f1151561032757600080fd5b5050506040518051905073ffffffffffffffffffffffffffffffffffffffff1663b3f05b976000604051602001526040518163ffffffff167c0100000000000000000000000000000000000000000000000000000000028152600401602060405180830381600087803b151561039c57600080fd5b6102c65a03f115156103ad57600080fd5b5050506040518051905015156103c257600080fd5b835185511415156103d257600080fd5b600092505b84518310156105bd5784838151811015156103ee57fe5b906020019060200201519150600260008373ffffffffffffffffffffffffffffffffffffffff1673ffffffffffffffffffffffffffffffffffffffff16815260200190815260200160002060009054906101000a900460ff1615156105b057838381518110151561045b57fe5b906020019060200201519050600160009054906101000a900473ffffffffffffffffffffffffffffffffffffffff1673ffffffffffffffffffffffffffffffffffffffff1663a9059cbb83836000604051602001526040518363ffffffff167c0100000000000000000000000000000000000000000000000000000000028152600401808373ffffffffffffffffffffffffffffffffffffffff1673ffffffffffffffffffffffffffffffffffffffff16815260200182815260200192505050602060405180830381600087803b151561053457600080fd5b6102c65a03f1151561054557600080fd5b50505060405180519050151561055757fe5b6001600260008473ffffffffffffffffffffffffffffffffffffffff1673ffffffffffffffffffffffffffffffffffffffff16815260200190815260200160002060006101000a81548160ff0219169083151502179055505b82806001019350506103d7565b5050505050565b6000809054906101000a900473ffffffffffffffffffffffffffffffffffffffff1673ffffffffffffffffffffffffffffffffffffffff163373ffffffffffffffffffffffffffffffffffffffff1614151561061f57600080fd5b806000806101000a81548173ffffffffffffffffffffffffffffffffffffffff021916908373ffffffffffffffffffffffffffffffffffffffff16021790555050565b600160009054906101000a900473ffffffffffffffffffffffffffffffffffffffff1681565b6000806000809054906101000a900473ffffffffffffffffffffffffffffffffffffffff1673ffffffffffffffffffffffffffffffffffffffff163373ffffffffffffffffffffffffffffffffffffffff161415156106e657600080fd5b60008373ffffffffffffffffffffffffffffffffffffffff161415610782576000809054906101000a900473ffffffffffffffffffffffffffffffffffffffff1673ffffffffffffffffffffffffffffffffffffffff166108fc3073ffffffffffffffffffffffffffffffffffffffff16319081150290604051600060405180830381858888f19350505050151561077d57600080fd5b6109b4565b8291508173ffffffffffffffffffffffffffffffffffffffff166370a08231306000604051602001526040518263ffffffff167c0100000000000000000000000000000000000000000000000000000000028152600401808273ffffffffffffffffffffffffffffffffffffffff1673ffffffffffffffffffffffffffffffffffffffff168152602001915050602060405180830381600087803b151561082857600080fd5b6102c65a03f1151561083957600080fd5b5050506040518051905090508173ffffffffffffffffffffffffffffffffffffffff1663a9059cbb6000809054906101000a900473ffffffffffffffffffffffffffffffffffffffff16836000604051602001526040518363ffffffff167c0100000000000000000000000000000000000000000000000000000000028152600401808373ffffffffffffffffffffffffffffffffffffffff1673ffffffffffffffffffffffffffffffffffffffff16815260200182815260200192505050602060405180830381600087803b151561091157600080fd5b6102c65a03f1151561092257600080fd5b50505060405180519050506000809054906101000a900473ffffffffffffffffffffffffffffffffffffffff1673ffffffffffffffffffffffffffffffffffffffff168373ffffffffffffffffffffffffffffffffffffffff167ff931edb47c50b4b4104c187b5814a9aef5f709e17e2ecf9617e860cacade929c836040518082815260200191505060405180910390a35b505050565b6000809054906101000a900473ffffffffffffffffffffffffffffffffffffffff16815600a165627a7a7230582091eb205899803dd2141f25153f6cfece68d009a5244fdf8a15de7bd6a35a7e4f0029",
  "source": "// create a contract to transfer referal bonuses pool\npragma solidity ^0.4.11;\n\nimport \"./interface/Controlled.sol\";\nimport \"./interface/MiniMeTokenI.sol\";\nimport \"./interface/Finalizable.sol\";\n\ncontract ReferalsTokenHolder is Controlled {\n  MiniMeTokenI public msp;\n  mapping (address => bool) been_spread;\n\n  function ReferalsTokenHolder(address _msp) {\n    msp = MiniMeTokenI(_msp);\n  }\n\n  function spread(address[] _addresses, uint256[] _amounts) public onlyController {\n    require(Finalizable(msp.controller()).finalized());\n    require(_addresses.length == _amounts.length);\n\n    for (uint256 i = 0; i < _addresses.length; i++) {\n      address addr = _addresses[i];\n      if (!been_spread[addr]) {\n        uint256 amount = _amounts[i];\n        assert(msp.transfer(addr, amount));\n        been_spread[addr] = true;\n      }\n    }\n  }\n\n//////////\n// Safety Methods\n//////////\n\n  /// @notice This method can be used by the controller to extract mistakenly\n  ///  sent tokens to this contract.\n  /// @param _token The address of the token contract that you want to recover\n  ///  set to 0 in case you want to extract ether.\n  function claimTokens(address _token) onlyController {\n    if (_token == 0x0) {\n      controller.transfer(this.balance);\n      return;\n    }\n\n    ERC20Token token = ERC20Token(_token);\n    uint balance = token.balanceOf(this);\n    token.transfer(controller, balance);\n    ClaimedTokens(_token, controller, balance);\n  }\n\n  event ClaimedTokens(address indexed _token, address indexed _controller, uint _amount);\n}\n",
  "sourcePath": "/home/gabriel/audits/mothership-audit/contracts/ReferalsTokenHolder.sol",
  "compiler": {
    "name": "solc",
    "version": "0.4.18+commit.9cf6e910.Emscripten.clang"
  },
  "schemaVersion": "1.0.1",
  "updatedAt": "2018-01-15T03:05:41.901Z"
}