{
  "contractName": "SITExchanger",
  "abi": [
    {
      "constant": true,
      "inputs": [
        {
          "name": "",
          "type": "address"
        }
      ],
      "name": "collected",
      "outputs": [
        {
          "name": "",
          "type": "uint256"
        }
      ],
      "payable": false,
      "stateMutability": "view",
      "type": "function"
    },
    {
      "constant": false,
      "inputs": [
        {
          "name": "_newController",
          "type": "address"
        }
      ],
      "name": "changeController",
      "outputs": [],
      "payable": false,
      "stateMutability": "nonpayable",
      "type": "function"
    },
    {
      "constant": false,
      "inputs": [
        {
          "name": "",
          "type": "address"
        },
        {
          "name": "",
          "type": "address"
        },
        {
          "name": "",
          "type": "uint256"
        }
      ],
      "name": "onTransfer",
      "outputs": [
        {
          "name": "",
          "type": "bool"
        }
      ],
      "payable": false,
      "stateMutability": "nonpayable",
      "type": "function"
    },
    {
      "constant": true,
      "inputs": [],
      "name": "contribution",
      "outputs": [
        {
          "name": "",
          "type": "address"
        }
      ],
      "payable": false,
      "stateMutability": "view",
      "type": "function"
    },
    {
      "constant": true,
      "inputs": [],
      "name": "sit",
      "outputs": [
        {
          "name": "",
          "type": "address"
        }
      ],
      "payable": false,
      "stateMutability": "view",
      "type": "function"
    },
    {
      "constant": true,
      "inputs": [],
      "name": "msp",
      "outputs": [
        {
          "name": "",
          "type": "address"
        }
      ],
      "payable": false,
      "stateMutability": "view",
      "type": "function"
    },
    {
      "constant": false,
      "inputs": [
        {
          "name": "",
          "type": "address"
        },
        {
          "name": "",
          "type": "address"
        },
        {
          "name": "",
          "type": "uint256"
        }
      ],
      "name": "onApprove",
      "outputs": [
        {
          "name": "",
          "type": "bool"
        }
      ],
      "payable": false,
      "stateMutability": "nonpayable",
      "type": "function"
    },
    {
      "constant": false,
      "inputs": [
        {
          "name": "_token",
          "type": "address"
        }
      ],
      "name": "claimTokens",
      "outputs": [],
      "payable": false,
      "stateMutability": "nonpayable",
      "type": "function"
    },
    {
      "constant": true,
      "inputs": [],
      "name": "totalCollected",
      "outputs": [
        {
          "name": "",
          "type": "uint256"
        }
      ],
      "payable": false,
      "stateMutability": "view",
      "type": "function"
    },
    {
      "constant": false,
      "inputs": [],
      "name": "collect",
      "outputs": [],
      "payable": false,
      "stateMutability": "nonpayable",
      "type": "function"
    },
    {
      "constant": false,
      "inputs": [
        {
          "name": "",
          "type": "address"
        }
      ],
      "name": "proxyPayment",
      "outputs": [
        {
          "name": "",
          "type": "bool"
        }
      ],
      "payable": true,
      "stateMutability": "payable",
      "type": "function"
    },
    {
      "constant": true,
      "inputs": [],
      "name": "controller",
      "outputs": [
        {
          "name": "",
          "type": "address"
        }
      ],
      "payable": false,
      "stateMutability": "view",
      "type": "function"
    },
    {
      "inputs": [
        {
          "name": "_sit",
          "type": "address"
        },
        {
          "name": "_msp",
          "type": "address"
        },
        {
          "name": "_contribution",
          "type": "address"
        }
      ],
      "payable": false,
      "stateMutability": "nonpayable",
      "type": "constructor"
    },
    {
      "anonymous": false,
      "inputs": [
        {
          "indexed": true,
          "name": "_token",
          "type": "address"
        },
        {
          "indexed": true,
          "name": "_controller",
          "type": "address"
        },
        {
          "indexed": false,
          "name": "_amount",
          "type": "uint256"
        }
      ],
      "name": "ClaimedTokens",
      "type": "event"
    },
    {
      "anonymous": false,
      "inputs": [
        {
          "indexed": true,
          "name": "_holder",
          "type": "address"
        },
        {
          "indexed": false,
          "name": "_amount",
          "type": "uint256"
        }
      ],
      "name": "TokensCollected",
      "type": "event"
    }
  ],
  "bytecode": "0x6060604052341561000f57600080fd5b604051606080610fac83398101604052808051906020019091908051906020019091908051906020019091905050336000806101000a81548173ffffffffffffffffffffffffffffffffffffffff021916908373ffffffffffffffffffffffffffffffffffffffff16021790555082600360006101000a81548173ffffffffffffffffffffffffffffffffffffffff021916908373ffffffffffffffffffffffffffffffffffffffff16021790555081600460006101000a81548173ffffffffffffffffffffffffffffffffffffffff021916908373ffffffffffffffffffffffffffffffffffffffff16021790555080600560006101000a81548173ffffffffffffffffffffffffffffffffffffffff021916908373ffffffffffffffffffffffffffffffffffffffff160217905550505050610e5a806101526000396000f3006060604052600436106100ba576000357c0100000000000000000000000000000000000000000000000000000000900463ffffffff16806338e43840146100bf5780633cebb8231461010c5780634a3931491461014557806350520b1f146101be578063a794457914610213578063a826748214610268578063da682aeb146102bd578063df8de3e714610336578063e29eb8361461036f578063e522538114610398578063f48c3054146103ad578063f77c4791146103f3575b600080fd5b34156100ca57600080fd5b6100f6600480803573ffffffffffffffffffffffffffffffffffffffff16906020019091905050610448565b6040518082815260200191505060405180910390f35b341561011757600080fd5b610143600480803573ffffffffffffffffffffffffffffffffffffffff16906020019091905050610460565b005b341561015057600080fd5b6101a4600480803573ffffffffffffffffffffffffffffffffffffffff1690602001909190803573ffffffffffffffffffffffffffffffffffffffff169060200190919080359060200190919050506104fe565b604051808215151515815260200191505060405180910390f35b34156101c957600080fd5b6101d161050a565b604051808273ffffffffffffffffffffffffffffffffffffffff1673ffffffffffffffffffffffffffffffffffffffff16815260200191505060405180910390f35b341561021e57600080fd5b610226610530565b604051808273ffffffffffffffffffffffffffffffffffffffff1673ffffffffffffffffffffffffffffffffffffffff16815260200191505060405180910390f35b341561027357600080fd5b61027b610556565b604051808273ffffffffffffffffffffffffffffffffffffffff1673ffffffffffffffffffffffffffffffffffffffff16815260200191505060405180910390f35b34156102c857600080fd5b61031c600480803573ffffffffffffffffffffffffffffffffffffffff1690602001909190803573ffffffffffffffffffffffffffffffffffffffff1690602001909190803590602001909190505061057c565b604051808215151515815260200191505060405180910390f35b341561034157600080fd5b61036d600480803573ffffffffffffffffffffffffffffffffffffffff16906020019091905050610588565b005b341561037a57600080fd5b610382610916565b6040518082815260200191505060405180910390f35b34156103a357600080fd5b6103ab61091c565b005b6103d9600480803573ffffffffffffffffffffffffffffffffffffffff16906020019091905050610dc3565b604051808215151515815260200191505060405180910390f35b34156103fe57600080fd5b610406610dca565b604051808273ffffffffffffffffffffffffffffffffffffffff1673ffffffffffffffffffffffffffffffffffffffff16815260200191505060405180910390f35b60016020528060005260406000206000915090505481565b6000809054906101000a900473ffffffffffffffffffffffffffffffffffffffff1673ffffffffffffffffffffffffffffffffffffffff163373ffffffffffffffffffffffffffffffffffffffff161415156104bb57600080fd5b806000806101000a81548173ffffffffffffffffffffffffffffffffffffffff021916908373ffffffffffffffffffffffffffffffffffffffff16021790555050565b60008090509392505050565b600560009054906101000a900473ffffffffffffffffffffffffffffffffffffffff1681565b600360009054906101000a900473ffffffffffffffffffffffffffffffffffffffff1681565b600460009054906101000a900473ffffffffffffffffffffffffffffffffffffffff1681565b60008090509392505050565b6000806000809054906101000a900473ffffffffffffffffffffffffffffffffffffffff1673ffffffffffffffffffffffffffffffffffffffff163373ffffffffffffffffffffffffffffffffffffffff161415156105e657600080fd5b600460009054906101000a900473ffffffffffffffffffffffffffffffffffffffff1673ffffffffffffffffffffffffffffffffffffffff168373ffffffffffffffffffffffffffffffffffffffff161415151561064357600080fd5b60008373ffffffffffffffffffffffffffffffffffffffff1614156106df576000809054906101000a900473ffffffffffffffffffffffffffffffffffffffff1673ffffffffffffffffffffffffffffffffffffffff166108fc3073ffffffffffffffffffffffffffffffffffffffff16319081150290604051600060405180830381858888f1935050505015156106da57600080fd5b610911565b8291508173ffffffffffffffffffffffffffffffffffffffff166370a08231306000604051602001526040518263ffffffff167c0100000000000000000000000000000000000000000000000000000000028152600401808273ffffffffffffffffffffffffffffffffffffffff1673ffffffffffffffffffffffffffffffffffffffff168152602001915050602060405180830381600087803b151561078557600080fd5b6102c65a03f1151561079657600080fd5b5050506040518051905090508173ffffffffffffffffffffffffffffffffffffffff1663a9059cbb6000809054906101000a900473ffffffffffffffffffffffffffffffffffffffff16836000604051602001526040518363ffffffff167c0100000000000000000000000000000000000000000000000000000000028152600401808373ffffffffffffffffffffffffffffffffffffffff1673ffffffffffffffffffffffffffffffffffffffff16815260200182815260200192505050602060405180830381600087803b151561086e57600080fd5b6102c65a03f1151561087f57600080fd5b50505060405180519050506000809054906101000a900473ffffffffffffffffffffffffffffffffffffffff1673ffffffffffffffffffffffffffffffffffffffff168373ffffffffffffffffffffffffffffffffffffffff167ff931edb47c50b4b4104c187b5814a9aef5f709e17e2ecf9617e860cacade929c836040518082815260200191505060405180910390a35b505050565b60025481565b600080600560009054906101000a900473ffffffffffffffffffffffffffffffffffffffff1673ffffffffffffffffffffffffffffffffffffffff166348cd4cb16000604051602001526040518163ffffffff167c0100000000000000000000000000000000000000000000000000000000028152600401602060405180830381600087803b15156109ad57600080fd5b6102c65a03f115156109be57600080fd5b505050604051805190506109d0610def565b1115156109dc57600080fd5b600360009054906101000a900473ffffffffffffffffffffffffffffffffffffffff1673ffffffffffffffffffffffffffffffffffffffff16634ee2cd7e33600560009054906101000a900473ffffffffffffffffffffffffffffffffffffffff1673ffffffffffffffffffffffffffffffffffffffff1663ada5cf636000604051602001526040518163ffffffff167c0100000000000000000000000000000000000000000000000000000000028152600401602060405180830381600087803b1515610aa957600080fd5b6102c65a03f11515610aba57600080fd5b505050604051805190506000604051602001526040518363ffffffff167c0100000000000000000000000000000000000000000000000000000000028152600401808373ffffffffffffffffffffffffffffffffffffffff1673ffffffffffffffffffffffffffffffffffffffff16815260200182815260200192505050602060405180830381600087803b1515610b5157600080fd5b6102c65a03f11515610b6257600080fd5b505050604051805190509150610bc0600160003373ffffffffffffffffffffffffffffffffffffffff1673ffffffffffffffffffffffffffffffffffffffff1681526020019081526020016000205483610df790919063ffffffff16565b9050600081111515610bd157600080fd5b610be681600254610e1090919063ffffffff16565b600281905550610c3e81600160003373ffffffffffffffffffffffffffffffffffffffff1673ffffffffffffffffffffffffffffffffffffffff16815260200190815260200160002054610e1090919063ffffffff16565b600160003373ffffffffffffffffffffffffffffffffffffffff1673ffffffffffffffffffffffffffffffffffffffff16815260200190815260200160002081905550600460009054906101000a900473ffffffffffffffffffffffffffffffffffffffff1673ffffffffffffffffffffffffffffffffffffffff1663a9059cbb33836000604051602001526040518363ffffffff167c0100000000000000000000000000000000000000000000000000000000028152600401808373ffffffffffffffffffffffffffffffffffffffff1673ffffffffffffffffffffffffffffffffffffffff16815260200182815260200192505050602060405180830381600087803b1515610d4e57600080fd5b6102c65a03f11515610d5f57600080fd5b505050604051805190501515610d7157fe5b3373ffffffffffffffffffffffffffffffffffffffff167f9381e53ffdc9733a6783a6f8665be3f89c231bb81a6771996ed553b4e75c0fe3826040518082815260200191505060405180910390a25050565b6000806000fd5b6000809054906101000a900473ffffffffffffffffffffffffffffffffffffffff1681565b600043905090565b6000828211151515610e0557fe5b818303905092915050565b6000808284019050838110151515610e2457fe5b80915050929150505600a165627a7a72305820b617b99afb58c42029b0155a1163f74c7520f9d2dcf578294e3a8343e73db5cd0029",
  "source": "pragma solidity ^0.4.11;\n\n/*\n  Copyright 2017, Anton Egorov (Mothership Foundation)\n  Copyright 2017, Jordi Baylina (Giveth)\n\n  This program is free software: you can redistribute it and/or modify\n  it under the terms of the GNU General Public License as published by\n  the Free Software Foundation, either version 3 of the License, or\n  (at your option) any later version.\n\n  This program is distributed in the hope that it will be useful,\n  but WITHOUT ANY WARRANTY; without even the implied warranty of\n  MERCHANTABILITY or FITNESS FOR A PARTICULAR PURPOSE.  See the\n  GNU General Public License for more details.\n\n  You should have received a copy of the GNU General Public License\n  along with this program.  If not, see <http://www.gnu.org/licenses/>.\n*/\n\n/// @title SITExchanger Contract\n/// @author Anton Egorov\n/// @dev This contract will be used to distribute MSP between SIT holders.\n///  SIT token is not transferable, and we just keep an accounting between all tokens\n///  deposited and the tokens collected.\n///  The controllerShip of SIT should be transferred to this contract before the\n///  contribution period starts.\n\n\nimport \"./misc/SafeMath.sol\";\nimport \"./interface/Controlled.sol\";\nimport \"./interface/ERC20Token.sol\";\nimport \"./interface/MiniMeTokenI.sol\";\nimport \"./Contribution.sol\";\n\ncontract SITExchanger is Controlled, TokenController {\n  using SafeMath for uint256;\n\n  mapping (address => uint256) public collected;\n  uint256 public totalCollected;\n  MiniMeTokenI public sit;\n  MiniMeTokenI public msp;\n  Contribution public contribution;\n\n  function SITExchanger(address _sit, address _msp, address _contribution) {\n    sit = MiniMeTokenI(_sit);\n    msp = MiniMeTokenI(_msp);\n    contribution = Contribution(_contribution);\n  }\n\n  /// @notice This method should be called by the SIT holders to collect their\n  ///  corresponding MSPs\n  function collect() public {\n    // SIT sholder could collect MSP right after contribution started\n    require(getBlockNumber() > contribution.startBlock());\n\n    // Get current MSP ballance\n    uint256 balance = sit.balanceOfAt(msg.sender, contribution.initializedBlock());\n\n    // And then subtract the amount already collected\n    uint256 amount = balance.sub(collected[msg.sender]);\n\n    require(amount > 0);  // Notify the user that there are no tokens to exchange\n\n    totalCollected = totalCollected.add(amount);\n    collected[msg.sender] = collected[msg.sender].add(amount);\n\n    assert(msp.transfer(msg.sender, amount));\n\n    TokensCollected(msg.sender, amount);\n  }\n\n  function proxyPayment(address) public payable returns (bool) {\n    throw;\n  }\n\n  function onTransfer(address, address, uint256) public returns (bool) {\n    return false;\n  }\n\n  function onApprove(address, address, uint256) public returns (bool) {\n    return false;\n  }\n\n  //////////\n  // Testing specific methods\n  //////////\n\n  /// @notice This function is overridden by the test Mocks.\n  function getBlockNumber() internal constant returns (uint256) {\n    return block.number;\n  }\n\n  //////////\n  // Safety Method\n  //////////\n\n  /// @notice This method can be used by the controller to extract mistakenly\n  ///  sent tokens to this contract.\n  /// @param _token The address of the token contract that you want to recover\n  ///  set to 0 in case you want to extract ether.\n  function claimTokens(address _token) public onlyController {\n    require(_token != address(msp));\n    if (_token == 0x0) {\n      controller.transfer(this.balance);\n      return;\n    }\n\n    ERC20Token token = ERC20Token(_token);\n    uint256 balance = token.balanceOf(this);\n    token.transfer(controller, balance);\n    ClaimedTokens(_token, controller, balance);\n  }\n\n  event ClaimedTokens(address indexed _token, address indexed _controller, uint256 _amount);\n  event TokensCollected(address indexed _holder, uint256 _amount);\n\n}\n",
  "sourcePath": "/home/gabriel/audits/mothership-audit/contracts/SITExchanger.sol",
  "compiler": {
    "name": "solc",
    "version": "0.4.18+commit.9cf6e910.Emscripten.clang"
  },
  "schemaVersion": "1.0.1",
  "updatedAt": "2018-01-15T03:05:41.903Z"
}